:020000040800F2
:100000007009002075670008AD050008AF050008FD
:10001000B3050008B7050008BB0500080000000094
:10002000000000000000000000000000BF05000804
:10003000C105000800000000C3050008C505000850
:100040008F6700088F6700088F67000881600008CD
:100050008F6700088F6700088F6700088F670008A8
:100060008F6700088F6700088F6700088F67000898
:100070008F6700088F6700088F6700088F67000888
:100080008F6700088F6700088F6700088F67000878
:100090008F6700088F6700088F67000811610008EC
:1000A0008F6700088F6700088F6700088F67000858
:1000B000AB090008C1610008D9BD00088F670008BE
:1000C0008F6700088F6700088F6700088F67000838
:1000D0008F670008E96600088F6700088F670008CF
:1000E000236100088F6700088F6700088F6700088A
:1000F0008F6700088F6700088F6700088F67000808
:100100008F6700088F6700088F6700088F670008F7
:100110008F6700088F6700088F6700088F670008E7
:100120008F6700088F6700088F6700088F670008D7
:1001300000F002F800F076F80AA090E8000C824483
:100140008344AAF10107DA4501D100F06BF8AFF260
:10015000090EBAE80F0013F0010F18BFFB1A43F0A5
:100160000103184708330100283301000A444FF007
:10017000000C10F8013B13F0070408BF10F8014B06
:100180001D1108BF10F8015B641E05D010F8016B4B
:10019000641E01F8016BF9D113F0080F1EBF10F8AF
:1001A000014BAD1C0C1B09D16D1E58BF01F801CBD2
:1001B000FAD505E014F8016B01F8016B6D1EF9D555
:1001C0009142D6D37047000000230024002500266A
:1001D000103A28BF78C1FBD8520728BF30C148BFAA
:1001E0000B60704766290FF0A48264290CF0FE832F
:1001F00075290CF0FB8378290CF0328463290DF00B
:10020000648073290DF06980002070471FB50DF0E0
:100210009DF80400002000210EF098F9E0601FBD59
:1002200010B510BD0DF0BCF91146FFF7EFFF00F05F
:100230000FF80DF0DAF903B4FFF7F2FF03BC06F094
:10024000F5F9000030BF72B662B680F308887047D7
:100250008CB04FF0000906F01BF806F083F8092077
:1002600006F08BF94FF4165006F0EFF99F484168FD
:100270004820884705F065FF41F61F4141F288306C
:1002800005F0D1FF08F01FF801F0DDFC012001F0BE
:100290003BFA00F02DFB00F087FA00F0ABFA0DE01E
:1002A000142006F032F809F1010000F0FF09B9F15D
:1002B0000A0F00D106E08EA00CF028FB0AF038FAF5
:1002C0000028EDD100BF00BF05F01CFE0028FBD1C7
:1002D000C82006F01AF88BA00CF018FB8EA00CF0CA
:1002E00015FB02E14FF0000A2FE005AA06A907A8B6
:1002F0000AF06BFAD8B907980EF07CFE05462A463C
:100300000B4687A00CF002FB06980EF073FE054624
:100310002A460B4686A00CF0F9FA05980EF06AFE04
:1003200005462A460B4686A00CF0F0FA10E005AA16
:1003300006A907A80AF049FA0546294684A00CF048
:10034000E5FA0AF1010000F0FF0ABAF1060FCCDB72
:1003500000BF80488078A0422BD07E48847820203F
:1003600000907C48427802234FF496714FF48C70D1
:1003700005F090FB78A020210B46C822CDE90010A3
:100380004FF496714FF4A07005F02DFC20200090E2
:100390007048827802234FF496714FF4A97005F0EB
:1003A00079FB6E48006808B9012000E000206B4925
:1003B00008606B4800680EF01DFE05462A460B4695
:1003C00068A109A80CF0AEFA68A020210B46C8224B
:1003D000CDE90010FA21322005F005FC09A8202102
:1003E0000B46C822CDE90010FA21A02005F0FBFB46
:1003F00060A020210B46C822CDE90010FA21084652
:1004000005F0F1FB00F018FB834658460EF0F2FDB4
:1004100005462A460B4653A10BA80CF083FA57A0B9
:1004200020211823C822CDE900101146322005F002
:10043000DAFB0BA820211823C822CDE900101146B1
:10044000104605F0D0FB06980EF0D4FD05462A466E
:100450000B4644A108A80CF065FA4BA020211823F4
:10046000C822CDE900104FF4AF71322005F0BBFB7C
:1004700008A820211823C822CDE900104FF4AF713D
:10048000962005F0B0FB424800680EF0C6FA074619
:10049000404A414B0EF0D4FA05462A460B4631A19C
:1004A00003A80CF03FFA3DA020211823C822CDE973
:1004B00000105100322005F096FB03A820211823DC
:1004C000C822CDE900105100104605F08CFB36A083
:1004D00020211823C822CDE9001051004FF4877065
:1004E00005F081FB642005F010FFFBE620010020F1
:1004F0006D70752077616974696E676060600D0A60
:10050000000000007274632077616974696E67602F
:1005100060600D0A0000000066696E6973680A0079
:10052000C7E3BDC731A3BA252E3266200D0A0000ED
:10053000C7E3BDC732A3BA252E3266200D0A0000DC
:10054000C7E3BDC733A3BA252E3266200D0A0000CB
:10055000256400002C0200203A0000009481214212
:1005600028000020252E32660000000053706565CB
:10057000643A00006B6D2F680000000044697374DA
:10058000656E63653A000000416E676C653A000075
:100590003000002083C0CAA145B6C33F6D696C65B9
:1005A0006167653A000000004B6D0000704700BFB6
:1005B000FEE700BFFEE700BFFEE700BFFEE77047B3
:1005C00070477047704700000CB500200190009004
:1005D0006C48006840F480306A49086000BF694890
:1005E000006800F4003000900198401C01900098D1
:1005F00018B90198B0F5A06FF1D16248006800F415
:10060000003010B10120009001E00020009000981F
:10061000012843D15C48006840F010005A49086046
:100620000846006820F0030008600846006840F0B3
:1006300002000860534840685249486008464068D4
:1006400048600846406840F480604860084640685A
:1006500020F47C1048600846406840F4E810486088
:100660000846006840F08070086000BF4548006898
:1006700000F000700028F9D04248406820F00300E4
:10068000404948600846406840F00200486000BFAA
:100690003C48406800F00C000828F9D10CBD10B5AA
:1006A000FFF792FF10BD10B53648006840F001001A
:1006B0003449086008464068344908403149486078
:1006C00008460068324908402E490860084600681C
:1006D00020F4802008600846406820F4FE0048604E
:1006E0004FF41F008860FFF7DAFF4FF000602949E0
:1006F000086010BD10B5002100200022214B5B686E
:1007000003F00C0121B1042906D0082928D107E003
:10071000214B224C236027E01F4B204C236023E019
:10072000184B5B6803F47010164B5B6803F480325F
:10073000022303EB904022B9194B4343174C23602B
:100740000DE0104B5B6803F4003323B1144B4343BB
:10075000124C236003E0104B4343104C236003E032
:100760000D4B0E4C236000BF00BF064B5B68C3F30C
:1007700003130C4CE15C094B1B68CB40074C236016
:1007800010BD000000100240002002400000FFF8F1
:10079000FFFFF6FE08ED00E000127A0000000020E6
:1007A00000093D000400002008B50121482006F0A2
:1007B0008BFB2020ADF8000010208DF803000320F3
:1007C0008DF802006946094806F0C2F82021074862
:1007D00006F06BF92020ADF800006946044806F0E9
:1007E000B7F82021024806F060F908BD000C01406E
:1007F0000018014008B50121442006F065FB1C20CB
:10080000ADF8000048208DF803006946354806F031
:100810009FF80120ADF8000028208DF803006946FC
:10082000314806F095F808BD10B5044614B1012012
:100830002E4908702D480078002837D0102129480B
:1008400006F019F978B10821264806F014F950B1DC
:100850000421244806F00FF928B10121224806F0AE
:100860000AF9012822D10A2005F04FFD00201F4976
:10087000087010211B4806F0FEF808B9012010BDD1
:100880000821184806F0F7F808B90220F7E7042114
:10089000144806F0F0F808B90320F0E701211248E7
:1008A00006F0E9F801281BD10420E8E710210D48E3
:1008B00006F0E1F8012813D108210A4806F0DBF818
:1008C00001280DD10421074806F0D5F8012807D1E9
:1008D0000121054806F0CFF810B90120034908703E
:1008E0000020CCE70018014000080140140000205F
:1008F00000B585B00121084606F0F3FA0121042075
:1009000006F0E2FA0120ADF8100028208DF813005F
:1009100004A9634806F01CF80121614806F0C7F8F5
:100920000220ADF8100010208DF8130003208DF880
:10093000120004A95A4806F00BF84FF6FF70ADF804
:1009400008004720ADF804000020ADF80A00ADF81B
:10095000060001A94FF0804006F0EEFB002051494F
:1009600008804880012088800020C88008814FF0DE
:10097000804006F074FE1C208DF8000002208DF8E7
:10098000010000208DF8020001208DF80300684668
:1009900005F015FF01220321900706F044FF012115
:1009A000880706F025FF05B000BD10B502214807F5
:1009B00007F0E7F9E8B13C48007860B900214FF052
:1009C000804007F0A9F90221480707F0C3F8012089
:1009D000354908700DE04FF0804007F0C0F9334909
:1009E000086000214FF0804007F0B4F800202E4945
:1009F000087003214FF0804007F0D4F910BD2DE9B5
:100A0000F04104460221264806F04FF8012005F087
:100A10007CFC0221224806F04AF820460EF0CEFC6B
:100A2000074623490EF012FD064622490EF07CFBD4
:100A300005462846BDE8F081F0B591B000260AE0F1
:100A40001A480068FFF7DBFF4DF82600012005F08B
:100A50005CFC701CC6B2112EF2DB00251BE00024EA
:100A600013E0621C5DF822105DF824000EF0BAFD60
:100A700009D25DF82470601C5DF820004DF8240058
:100A8000601C4DF82070601CC4B2C5F11000A0427B
:100A9000E7DA681CC5B2102DE1DD089811B0F0BD91
:100AA0000008014014020020180000201C00002053
:100AB0000000AA430024F4494FF48071FE4A5161BA
:100AC00049005161FD49086080215161116189002F
:100AD000116170474FF48071F74A1161490051610B
:100AE000F6490860802151611161890011617047E8
:100AF00010B54FF08830F1490C390860091D0860C5
:100B00000020EE4908608815EB4908614000486103
:100B100040204861EA48808848F68911884202D11D
:100B2000022005F0CEFBE548001F006884B240209B
:100B3000E1490861C00008614FF03330DF490C39EA
:100B40000860091D08604FF6FF70DC490860204608
:100B500010BD10B504460B462046FFF7ADFF4FF41D
:100B60008070D549086140004861D4480360802006
:100B7000486108618000086110BD10B50446204638
:100B8000FFF79AFFFFF7B4FF10BD00B5CC49088905
:100B9000FFF792FF00BD4FF48071C74A1161490011
:100BA0005161C6490860802151611161890011615C
:100BB000704730B5014601F01F04C1F34513CA0A5E
:100BC000E50205EB43151544A8B230BD30B5044627
:100BD0000D46BB48808849F24131884205D0B8486B
:100BE000808845F21031884240D1B5494889FFF7E5
:100BF00063FF4FF48070B0490861400048612012E3
:100C0000AE4908608020AC494861086180000861F5
:100C10004010086140004861E0B2A84908608020A7
:100C2000A5494861086180000861A5498889FFF7E6
:100C300043FF4FF48070A0490861400048612812CA
:100C40009E49086080209C494861086180000861D5
:100C50004010086140004861E8B29849086080206F
:100C600095494861086180000861B9E0944880882E
:100C700046F60401884249D191488079012804D17F
:100C80008F480088401E001B84B28D494889FFF7B9
:100C900013FF4FF4807088490861400048612012BA
:100CA00086490860802084494861086180000861A5
:100CB0004010086140004861E0B28049086080202F
:100CC0007D4948610861800008617D498889FFF796
:100CD000F3FE4FF4807078490861400048612812A3
:100CE0007649086080207449486108618000086185
:100CF0004010086140004861E8B2704908608020F7
:100D00006D49486108618000086169E06C4880882D
:100D100045F21051884250D169494889FFF7CCFE0D
:100D20004FF48070644908614000486120126349B3
:100D3000086080206049486108618000086160495E
:100D40004989491C88B2FFF7B7FE4FF480705A49B1
:100D5000086140004861E0B2584908608020564967
:100D6000486108618000086155498889FFF7A4FE41
:100D70004FF48070504908614000486128124F4983
:100D8000086080204C4948610861800008614C4936
:100D90008989491C88B2FFF78FFE4FF4807046495D
:100DA000086140004861E8B2444908608020424937
:100DB000486108618000086112E04148807901289B
:100DC00004D13F480088401E001B84B23C4948893A
:100DD0002146FFF7BEFE3A4988892946FFF7B9FE4A
:100DE00030BD2DE9F04105460E4635480088A84241
:100DF00003DD33484088B04202DC0020BDE8F081CA
:100E000031462846FFF7E2FE2D48808849F24131FD
:100E100088420BD02A48808846F60401884205D0D3
:100E20002748808845F21031884203D12E20FFF7F1
:100E300043FE0DE02248808845F21051884204D1DB
:100E40004FF43850FFF738FE02E02220FFF734FE5F
:100E50004FF0883019490C390860091D08604FF6B9
:100E6000FF70164908608815134908614000486101
:100E700040204861012005F024FA40200E49086115
:100E80004861012005F01DFA0C48001F006884B27B
:100E90004020094908610A48808849F24131884266
:100EA00012D00748808845F2103188420CD004489F
:100EB000808845F2105105E0001001400C0C014003
:100EC0001E02002088420ED14020FE494861FE48A3
:100ED00000681FFA80F840200861E7B24FF6FF7003
:100EE00000EA07270CE0F948808846F604018842AA
:100EF00006D14020F34948610861F348006884B294
:100F00004FF40070EF4908614FF03330EE49083973
:100F10000860091D08604FF6FF70EB49091D086065
:100F2000EA48808849F22531884216D0E74880880F
:100F300044F23551884210D0E4488088091F884225
:100F40000BD0E248808848F68911884205D0DF48F6
:100F500080884BF20551884201D120464EE7DB489C
:100F6000808849F2413188420BD0D848808845F2C8
:100F70001031884205D0D548808845F2105188420A
:100F800007D1E012C002B91240EA411040EAE8205D
:100F900034E72046FFF70DFE30E700B5CB488088E8
:100FA00049F2413188420BD0C848808846F6040196
:100FB000884205D0C548808845F21031884203D167
:100FC0002920FFF779FD0FE0C048808845F21051D5
:100FD000884204D14FF42450FFF76EFD04E040F244
:100FE00073110720FFF7B5FD00BD00B5B748808835
:100FF00049F2413188420BD0B448808846F604015A
:10100000884205D0B148808845F21031884203D12A
:101010002820FFF751FD0EE0AC48808845F21051C2
:10102000884204D14FF42050FFF746FD03E0002131
:101030000720FFF78EFD00BDF0B505460024002710
:10104000A248807901281ED1A048808846F6040174
:10105000884218D0082D15D2DFE805F00406080AEA
:101060000C0E101206250DE007250BE0042509E003
:10107000052507E0012505E0002503E0032501E043
:10108000022500BF00BF9148808849F24131884263
:1010900011D08E48808846F6040188420BD08B48D8
:1010A000808845F21031884205D08848808845F212
:1010B000105188427ED1082D1CD2DFE805F00406CD
:1010C000090C0F12151800BF14E044F0800411E061
:1010D00044F040040EE044F0C0040BE044F020046F
:1010E00008E044F0600405E044F0A00402E044F0AD
:1010F000E00400BF00BF7548808845F21051884267
:1011000002D14FF4585700E036277048808845F2E6
:101110001031884207D06D48808845F210518842CE
:1011200001D044F008046948808846F604018842EA
:1011300001D144F0020421463846FFF70AFD04F0CD
:10114000200068B16148008860494988884214DA03
:101150005E48068840885D490880084646800CE065
:101160005A48008859494988884206DD5748068808
:10117000408856490880084646805448808845F291
:10118000105188427ED151494889FFF795FC4FF4B0
:1011900080704C4908614000486100204A49091D9F
:1011A000086080204749486108618000086147491C
:1011B000498900E02BE1491C88B2FFF77DFC4FF420
:1011C0008070404908614000486100203E49091D87
:1011D000086080203B4948610861800008613B4904
:1011E0004989891C88B2FFF767FC4FF48070354944
:1011F00008614000486135480088401E00123249AD
:10120000091D086080202F4948610861800008613D
:101210002E494989C91C88B2FFF74EFC4FF48070F3
:10122000284908614000486128480078401EC0B243
:101230002549091D08608020224948610861800015
:10124000086122498889FFF737FC4FF480701D49F7
:1012500008614000486100201B49091D086080208A
:101260001849486108618000086118498989491C4A
:1012700088B2FFF721FC4FF48070124908614000EA
:10128000486100E042E000200F49091D086080200D
:101290000C4948610861800008610C498989891CF2
:1012A00088B2FFF709FC4FF48070064908614000DE
:1012B000486106484088401E00120349091D086025
:1012C000802005E000100140080C01401E020020B3
:1012D000FE494861086180000861FD498989C91C8F
:1012E00088B2FFF7E9FB4FF48070F84908614000CD
:1012F0004861F7488078401EC0B2F64908608020F7
:10130000F2494861086180000861B2E0F04948890B
:10131000FFF7D2FB4FF48070EC4908614000486150
:101320000020EC4908608020E8494861086180009D
:10133000086140100861400048610020E5490860EC
:101340008020E2494861086180000861401008611E
:1013500040004861DE480088401E0012DD490860F8
:101360008020DA4948610861800008614010086106
:1013700040004861D6480078401EC0B2D549086098
:101380008020D2494861086180000861D04988897D
:10139000FFF792FB4FF48070CC4908614000486130
:1013A0000020CC4908608020C8494861086180005D
:1013B000086140100861400048610020C54908608C
:1013C0008020C249486108618000086140100861BE
:1013D00040004861BE484088401E0012BD49086078
:1013E0008020BA49486108618000086140100861A6
:1013F00040004861B6488078401EC0B2B5490860D8
:101400008020B249486108618000086131E0082D00
:101410001CD2DFE805F004070A0D0F12151844F07E
:10142000300413E044F0100410E044F020040DE018
:1014300000BF0BE044F0380408E044F0280405E065
:1014400044F0180402E044F0080400BF00BFA048C4
:10145000808848F68911884204D1112746F240005D
:10146000044302E0032744F4805421463846FFF742
:1014700070FBF0BD30B504460D4629462046FFF707
:10148000A5FBFFF782FB4FF4807090490861400094
:101490004861914800888F49086080208B494861E5
:1014A00008618000086130BD70B504460D461646DF
:1014B0008748808849F24131884205D08448808835
:1014C00045F21031884240D181494889FFF7F4FA4A
:1014D0004FF480707D4908614000486120127D49C9
:1014E00008608020794948610861800008614010E7
:1014F000086140004861E0B2764908608020734985
:10150000486108618000086171498889FFF7D4FA51
:101510004FF480706D4908614000486128126D49A0
:1015200008608020694948610861800008614010B6
:10153000086140004861E8B266490860802063495C
:101540004861086180000861B9E06148808845F21F
:101550001051884250D15E494889FFF7ADFA4FF4E7
:1015600080705A490861400048612012594908605A
:1015700080205649486108618000086154494989C2
:10158000491C88B2FFF798FA4FF480704F49086100
:1015900040004861E0B24F49086080204B494861F3
:1015A0000861800008614A498889FFF785FA4FF48D
:1015B000807046490861400048612812454908602A
:1015C000802042494861086180000861404989895A
:1015D000491C88B2FFF770FA4FF480703B490861EC
:1015E00040004861E8B23B490860802037494861C3
:1015F00008618000086162E03548808846F6040191
:10160000884249D132488079012804D13048008885
:10161000401E001B84B22E494889FFF74DFA4FF453
:1016200080702A49086140004861201229490860F9
:1016300080202649486108618000086140100861E7
:1016400040004861E0B22349086080201F4948619A
:101650000861800008611E498889FFF72DFA4FF460
:1016600080701A49086140004861281219490860D1
:1016700080201649486108618000086140100861B7
:1016800040004861E8B21349086080200F49486172
:1016900008618000086112E00D488079012804D1BA
:1016A0000B480088401E001B84B209494889214626
:1016B000FFF74FFA064988892946FFF74AFA4FF49F
:1016C0008070024948614000486107E00010014015
:1016D0001E0200200C0C014020000020FD48008963
:1016E000FD4908608020FD4948610861800008616B
:1016F0004010086140004861F7480660802048615A
:1017000008618000086170BD10B50446002C60D1EE
:10171000F0498871F02008804FF4A0704880084696
:10172000808849F2413188420BD0EA48808846F6E9
:101730000401884205D0E748808845F2103188428C
:101740001AD12C20E34908812A2048812B20888146
:101750000846808846F60401884205D0DD48808826
:1017600045F21031884206D14FF4A070D949088063
:101770004FF4F070488095E0D648808848F689118B
:10178000884207D12220D34908814E2048814F202A
:10179000888187E0CF48808845F21051884210D177
:1017A0004FF43050CB4908814FF4285048814FF412
:1017B0002C5088814FF4F07008804FF448704880B6
:1017C00070E02220C349088120204881212088819F
:1017D00068E00120BF4988714FF4A0700880F020B4
:1017E00048800846808849F24131884205D0B9488E
:1017F000808845F21031884207D12C20B5490881F4
:101800002A2048812B20888139E0B248808846F61A
:101810000401884207D12C20AE4908812B20488141
:101820002A2088812BE0AB48808848F689118842BD
:1018300007D12220A74908814F2048814E20888166
:101840001DE0A448808845F21051884210D14FF421
:101850003050A04908814FF4285048814FF42C5053
:1018600088814FF4487008804FF4F070488006E09B
:10187000222098490881212048812020888195488C
:10188000808846F60401884205D09248808845F257
:101890001031884206D14FF4F0708E4908804FF421
:1018A000A07048800020FFF7C7FB10BD2DE9FF4F57
:1018B00004460D4616461F46A019401E86B2E8197A
:1018C000401E87B28348808849F2413188420BD05C
:1018D0008048808845F21031884205D07D48808854
:1018E00046F60401884275D17A494889FFF7E4F841
:1018F0004FF48070794908614000486120127649B0
:1019000008608020754948610861800008614010C6
:10191000086140004861E0B26F49086080206F496B
:10192000486108618000086140100861400048611A
:101930003012694908608020684948610861800068
:1019400008614010086140004861F0B262490860D7
:101950008020624948610861800008615D4988898A
:10196000FFF7AAF84FF480705C49086140004861B5
:101970002812594908608020584948610861800050
:1019800008614010086140004861E8B252490860AF
:101990008020524948610861800008614010086158
:1019A0004000486138124C49086080204B4948612A
:1019B0000861800008614010086140004861F8B289
:1019C00045490860802045494861086180000861F8
:1019D000FAE0FFE73F48808845F2105188427FD106
:1019E0003C494889FFF768F84FF480703B4908612B
:1019F000400048612012384908608020374948611A
:101A000008618000086133494989491C88B2FFF7A1
:101A100053F84FF480703149086140004861E0B2EA
:101A20002D49086080202D494861086180000861C7
:101A300028494989891C88B2FFF73EF84FF4807025
:101A4000264908614000486130122349086080201F
:101A5000224948610861800008611E494989C91C02
:101A600088B2FFF729F84FF480701C4908614000E4
:101A70004861F0B21849086080201849486108613F
:101A80008000086113498889FFF716F84FF48070C9
:101A9000124908614000486128120F4908608020FF
:101AA0000E4948610861800008610A498989491C1A
:101AB00088B2FFF701F84FF48070084908614000D0
:101AC0004861E8B20449086080200449486108611F
:101AD000800006E01E0200200C0C014000100140B6
:101AE0002BE00861FE498989891C88B2FEF7E4FF72
:101AF0004FF48070FB490861400048613812FA4990
:101B000008608020F7494861086180000861F44955
:101B10008989C91C88B2FEF7CFFF4FF48070F14964
:101B2000086140004861F8B2EF4908608020ED4943
:101B3000486108618000086146E0E9488079012831
:101B40000ED1A846B946E6480088801B401E80B2E8
:101B50000190E3480088001B401E80B2009003E023
:101B6000A046B14601950097DD48808848F6891166
:101B700088420DD14FF0440A4FF0440B48EA092047
:101B80001FFA80F8C146452003904620029007E0E6
:101B90004FF0500A4FF0510B522003905320029007
:101BA00041465046FEF7D5FF49465846FEF7D1FF5D
:101BB00001990398FEF7CDFF00990298FEF7C9FF3F
:101BC00029462046FFF702F8BDE8FF8F70B50446AE
:101BD0000026C348058840884543C148808846F6AA
:101BE0000401884216D1BE488079012812D1002014
:101BF000BB4988712A2048812B2088810021084612
:101C0000FEF7E4FF0120B64988712B2048812A2085
:101C1000888103E000210846FEF7D8FFFEF7B5FFF4
:101C200000260DE04FF48070AE4908614000486125
:101C3000AD48046080204861086180000861761C1E
:101C4000AE42EFD370BD10B5A848806940F00800DF
:101C5000A64988610846806940F0100088610846FE
:101C6000806940F001008861012004F071FC9D480A
:101C700040686FF30B009B4948600846406840F29B
:101C800033310843974948600846006820F07F4098
:101C900008600846006840F04C5008600846C0687C
:101CA00040F4F860C8604FF033308F49083908605D
:101CB000091F08604FF6FF708B490860322004F05E
:101CC00024FB01210020FEF744FF322004F01DFB1D
:101CD0000020FEF752FF8249888008468088FF284E
:101CE0000ADB084680884FF6FF71884204D07C48A2
:101CF0008088B0F5134F7CD1D320FEF7DDFEFEF7D0
:101D0000F7FEFEF7F5FEFEF7F3FE754988800846FC
:101D100080884FF6FF7101EA002071498880FEF744
:101D2000E7FE6F49898808436D49888008468088A6
:101D300049F2413188426CD0BF20FEF7BDFEFEF76C
:101D4000D7FEFEF7D5FEFEF7D3FEFEF7D1FE6449BF
:101D50008880084680884FF6FF7101EA00206049BC
:101D60008880FEF7C5FE5E49898808435C49888003
:101D70000846808846F6040188424AD0D420FEF7FF
:101D80009BFEFEF7B5FEFEF7B3FEFEF7B1FE54492B
:101D90008880084680884FF6FF7101EA002050498C
:101DA0008880FEF7A5FE4E49898808434C49888003
:101DB0000846808845F2103188422AD04FF45A40B4
:101DC000FEF77AFEFEF794FE4FF45B40FEF774FEDA
:101DD000FEF78EFE42498880084680884FF6FF71E4
:101DE00001EA00203E4988804FF45C40FEF764FE23
:101DF00000E00EE0FEF77CFE394989880843384947
:101E0000888008468088B0F5004F02D145F2105016
:101E100088803348818836A00AF078FD3048808871
:101E200049F2413188426BD1CF20FEF745FE0020B8
:101E3000FEF750FEC120FEF74DFE3020FEF74AFEB1
:101E4000ED20FEF739FE6420FEF744FE0320FEF786
:101E500041FE1220FEF73EFE8120FEF73BFEE82009
:101E6000FEF72AFE8520FEF735FE1020FEF732FE33
:101E70007A20FEF72FFECB20FEF71EFE3920FEF75C
:101E800029FE2C20FEF726FE0020FEF723FE34203C
:101E9000FEF720FE0220FEF71DFEF720FEF70CFEE7
:101EA0002020FEF717FEEA20FEF706FE0020FEF7D0
:101EB00011FE0020FEF70EFEC020FEF7FDFD1B20E8
:101EC000FEF708FEC120FEF7F7FD0120FEF702FE37
:101ED000C520FEF7F1FD3020FEF7FCFD302010E0BC
:101EE0001E020020001001400C0C014000100240B6
:101EF000204C43442049443A25780D0A0000000054
:101F0000BAE0FEF7E7FDC720FEF7D6FDB720FEF7E3
:101F1000E1FD3620FEF7D0FD4820FEF7DBFD3A203C
:101F2000FEF7CAFD5520FEF7D5FDB120FEF7C4FD32
:101F30000020FEF7CFFD1A20FEF7CCFDB620FEF7FD
:101F4000BBFD0A20FEF7C6FDA220FEF7C3FDF2206E
:101F5000FEF7B2FD0020FEF7BDFD2620FEF7ACFD2A
:101F60000120FEF7B7FDE020FEF7A6FD0F20FEF7EB
:101F7000B1FD2A20FEF7AEFD2820FEF7ABFD0820BC
:101F8000FEF7A8FD0E20FEF7A5FD0820FEF7A2FD36
:101F90005420FEF79FFDA920FEF79CFD4320FEF78D
:101FA00099FD0A20FEF796FD0F20FEF793FD002015
:101FB000FEF790FD0020FEF78DFD0020FEF78AFD64
:101FC0000020FEF787FDE120FEF776FD0020FEF7FA
:101FD00081FD1520FEF77EFD1720FEF77BFD072013
:101FE000FEF778FD1120FEF775FD0620FEF772FD65
:101FF0002B20FEF76FFD5620FEF76CFD3C20FEF710
:1020000069FD0520FEF766FD1020FEF763FD0F2039
:10201000FEF760FD3F20FEF75DFD3F20FEF75AFD15
:102020000F20FEF757FD2B20FEF746FD0020FEF7A0
:1020300051FD0020FEF74EFD0120FEF74BFD3F2035
:10204000FEF748FD2A20FEF737FD0020FEF742FD8F
:102050000020FEF73FFD0020FEF73CFDEF20FEF7DD
:1020600039FD1120FEF728FD782004F04EF92920D3
:10207000FEF722FD03F0FCBAFE48808846F6040114
:1020800088427CD11120FEF717FD142004F03DF9A1
:10209000D020FEF711FD0720FEF71CFD4220FEF7C1
:1020A00019FD1D20FEF716FDD120FEF705FD0020CD
:1020B000FEF710FD1A20FEF70DFD0920FEF70AFDC0
:1020C000D220FEF7F9FC0120FEF704FD2220FEF7E6
:1020D00001FDC020FEF7F0FC1020FEF7FBFC3B20CA
:1020E000FEF7F8FC0020FEF7F5FC0220FEF7F2FCFC
:1020F0001120FEF7EFFCC520FEF7DEFC0320FEF703
:10210000E9FCC820FEF7D8FC0020FEF7E3FC252000
:10211000FEF7E0FC2120FEF7DDFC0520FEF7DAFCEF
:102120000020FEF7D7FC0A20FEF7D4FC6520FEF75E
:10213000D1FC2520FEF7CEFC7720FEF7CBFC50200B
:10214000FEF7C8FC0F20FEF7C5FC0020FEF7C2FC1E
:10215000F820FEF7B1FC0120FEF7BCFCFE20FEF7E4
:10216000ABFC0020FEF7B6FC0220FEF7B3FC2020FB
:10217000FEF7A2FC3620FEF79FFC082000E02CE0D2
:10218000FEF7A8FC3A20FEF797FC5520FEF7A2FCCC
:102190002B20FEF791FC0020FEF79CFC0020FEF7B0
:1021A00099FC0120FEF796FC3F20FEF793FC2A20C5
:1021B000FEF782FC0020FEF78DFC0020FEF78AFC73
:1021C0000120FEF787FCDF20FEF784FC782004F076
:1021D0009CF82920FEF770FC4CE7A648808845F261
:1021E0001031884240F07C87ED20FEF765FC01202D
:1021F000FEF770FCFE20FEF76DFCEE20FEF75CFCA7
:10220000DE20FEF767FC2120FEF764FCF120FEF7DC
:1022100053FC0120FEF75EFCDF20FEF74DFC102092
:10222000FEF758FCC420FEF747FC8F20FEF752FC57
:10223000C620FEF741FC0020FEF74CFCE220FEF732
:1022400049FCE220FEF746FCE220FEF743FCBF20FB
:10225000FEF732FCAA20FEF73DFCB020FEF72CFC76
:102260000D20FEF737FC0020FEF734FC0D20FEF7B2
:1022700031FC0020FEF72EFC1120FEF72BFC002085
:10228000FEF728FC1920FEF725FC0020FEF722FCB3
:102290002120FEF71FFC0020FEF71CFC2D20FEF77E
:1022A00019FC0020FEF716FC3D20FEF713FC002071
:1022B000FEF710FC5D20FEF70DFC0020FEF70AFC87
:1022C0005D20FEF707FC0020FEF704FCB120FEF7BE
:1022D000F3FB8020FEF7FEFB0020FEF7FBFB8B20CC
:1022E000FEF7F8FB0020FEF7F5FB9620FEF7F2FB69
:1022F0000020FEF7EFFBB220FEF7DEFB0020FEF72A
:10230000E9FB0020FEF7E6FB0220FEF7E3FB0020DE
:10231000FEF7E0FB0320FEF7DDFB0020FEF7DAFB13
:10232000B320FEF7C9FB0020FEF7D4FB0020FEF728
:10233000D1FB0020FEF7CEFB0020FEF7CBFB0020F8
:10234000FEF7C8FB0020FEF7C5FB0020FEF7C2FB2E
:102350000020FEF7BFFB0020FEF7BCFB0020FEF7CD
:10236000B9FB0020FEF7B6FB0020FEF7B3FB002010
:10237000FEF7B0FB0020FEF7ADFB0020FEF7AAFB46
:102380000020FEF7A7FB0020FEF7A4FB0020FEF7CD
:10239000A1FB0020FEF79EFB0020FEF79BFB002028
:1023A000FEF798FB0020FEF795FB0020FEF792FB5E
:1023B0000020FEF78FFBB420FEF77EFB8B20FEF79C
:1023C00089FB0020FEF786FB9620FEF783FB0020AA
:1023D000FEF780FBA120FEF77DFB0020FEF77AFBD5
:1023E000B520FEF769FB0220FEF774FB0020FEF724
:1023F00071FB0320FEF76EFB0020FEF76BFB042051
:10240000FEF768FB0020FEF765FBB620FEF754FBE5
:102410000020FEF75FFB0020FEF75CFBB720FEF715
:102420004BFB0020FEF756FB0020FEF753FB3F203E
:10243000FEF750FB0020FEF74DFB5E20FEF74AFB47
:102440000020FEF747FB6420FEF744FB0020FEF768
:1024500041FB8C20FEF73EFB0020FEF73BFBAC204F
:10246000FEF738FB0020FEF735FBDC20FEF732FBE1
:10247000002001E01E020020FEF72CFB7020FEF77A
:1024800029FB0020FEF726FB9020FEF723FB00200F
:10249000FEF720FBEB20FEF71DFB0020FEF71AFBEA
:1024A000DC20FEF717FB0020FEF714FBB820FEF738
:1024B00003FB0020FEF70EFB0020FEF70BFB0020C5
:1024C000FEF708FB0020FEF705FB0020FEF702FBED
:1024D0000020FEF7FFFA0020FEF7FCFA0020FEF7CE
:1024E000F9FABA20FEF7E8FA2420FEF7F3FA002002
:1024F000FEF7F0FA0020FEF7EDFA0020FEF7EAFA08
:10250000C120FEF7D9FA2020FEF7E4FA0020FEF7FA
:10251000E1FA5420FEF7DEFA0020FEF7DBFAFF2096
:10252000FEF7D8FA0020FEF7D5FAC220FEF7C4FA6B
:102530000A20FEF7CFFA0020FEF7CCFA0420FEF7BF
:10254000C9FA0020FEF7C6FAC320FEF7B5FA3C2010
:10255000FEF7C0FA0020FEF7BDFA3A20FEF7BAFAFD
:102560000020FEF7B7FA3920FEF7B4FA0020FEF794
:10257000B1FA3720FEF7AEFA0020FEF7ABFA3C20A6
:10258000FEF7A8FA0020FEF7A5FA3620FEF7A2FA19
:102590000020FEF79FFA3220FEF79CFA0020FEF79B
:1025A00099FA2F20FEF796FA0020FEF793FA2C20D6
:1025B000FEF790FA0020FEF78DFA2920FEF78AFA3E
:1025C0000020FEF787FA2620FEF784FA0020FEF7A7
:1025D00081FA2420FEF77EFA0020FEF77BFA242001
:1025E000FEF778FA0020FEF775FA2320FEF772FA5C
:1025F0000020FEF76FFA3C20FEF76CFA0020FEF791
:1026000069FA3620FEF766FA0020FEF763FA3220F8
:10261000FEF760FA0020FEF75DFA2F20FEF75AFA67
:102620000020FEF757FA2C20FEF754FA0020FEF7A0
:1026300051FA2920FEF74EFA0020FEF74BFA262029
:10264000FEF748FA0020FEF745FA2420FEF742FA8A
:102650000020FEF73FFA2420FEF73CFA0020FEF7A8
:1026600039FA2320FEF736FA0020FEF733FAC420A9
:10267000FEF722FA6220FEF72DFA0020FEF72AFA72
:102680000520FEF727FA0020FEF724FA8420FEF743
:1026900021FA0020FEF71EFAF020FEF71BFA0020B8
:1026A000FEF718FA1820FEF715FA0020FEF712FAC6
:1026B000A420FEF70FFA0020FEF70CFA1820FEF710
:1026C00009FA0020FEF706FA5020FEF703FA002070
:1026D000FEF700FA0C20FEF7FDF90020FEF7FAF9EC
:1026E0001720FEF7F7F90020FEF7F4F99520FEF722
:1026F000F1F90020FEF7EEF9F320FEF7EBF90020E8
:10270000FEF7E8F9E620FEF7E5F90020FEF7E2F92A
:10271000C520FEF7D1F93220FEF7DCF90020FEF7E4
:10272000D9F94420FEF7D6F90020FEF7D3F9652049
:10273000FEF7D0F90020FEF7CDF97620FEF7CAF9B2
:102740000020FEF7C7F98820FEF7C4F90020FEF745
:10275000C1F9C620FEF7B0F92020FEF7BBF9002032
:10276000FEF7B8F91720FEF7B5F90020FEF7B2F929
:102770000120FEF7AFF90020FEF7ACF9C720FEF705
:102780009BF90020FEF7A6F90020FEF7A3F9002030
:10279000FEF7A0F90020FEF79DF9C820FEF78CF99E
:1027A0000020FEF797F90020FEF794F90020FEF7CD
:1027B00091F90020FEF78EF9C920FEF77DF900207F
:1027C000FEF788F90020FEF785F90020FEF782F970
:1027D0000020FEF77FF90020FEF77CF90020FEF7CD
:1027E00079F90020FEF776F90020FEF773F9002052
:1027F000FEF770F90020FEF76DF90020FEF76AF988
:102800000020FEF767F90020FEF764F90020FEF7CC
:1028100061F90020FEF75EF90020FEF75BF9E02089
:10282000FEF74AF91620FEF755F90020FEF752F997
:102830001C20FEF74FF90020FEF74CF92120FEF78F
:1028400049F90020FEF746F93620FEF743F900204B
:10285000FEF740F94620FEF73DF90020FEF73AF971
:102860005220FEF737F90020FEF734F96420FEF716
:1028700031F90020FEF72EF97A20FEF72BF900201F
:10288000FEF728F98B20FEF725F90020FEF722F944
:102890009920FEF71FF90020FEF71CF9A820FEF78B
:1028A00019F90020FEF716F9B920FEF713F90020F8
:1028B000FEF710F9C420FEF70DF90020FEF70AF923
:1028C000CA20FEF707F90020FEF704F9D220FEF730
:1028D00001F90020FEF7FEF8D920FEF7FBF80020F2
:1028E000FEF7F8F8E020FEF7F5F80020FEF7F2F822
:1028F000F320FEF7EFF80020FEF7ECF8E120FEF7FA
:10290000DBF81620FEF7E6F80020FEF7E3F81C20BF
:10291000FEF7E0F80020FEF7DDF82220FEF7DAF8F7
:102920000020FEF7D7F83620FEF7D4F80020FEF797
:10293000D1F84520FEF7CEF80020FEF7CBF8522064
:10294000FEF7C8F80020FEF7C5F86420FEF7C2F8CD
:102950000020FEF7BFF87A20FEF7BCF80020FEF753
:10296000B9F88B20FEF7B6F80020FEF7B3F89920EF
:10297000FEF7B0F80020FEF7ADF8A820FEF7AAF8A1
:102980000020FEF7A7F8B920FEF7A4F80020FEF714
:10299000A1F8C420FEF79EF80020FEF79BF8CA209D
:1029A000FEF798F80020FEF795F8D220FEF792F88F
:1029B0000020FEF78FF8D820FEF78CF80020FEF7F5
:1029C00089F8E020FEF786F80020FEF783F8F32070
:1029D000FEF780F80020FEF77DF8E220FEF76CF8A5
:1029E0000520FEF777F80020FEF774F80B20FEF7BD
:1029F00071F80020FEF76EF81B20FEF76BF8002040
:102A0000FEF768F83420FEF765F80020FEF762F85C
:102A10004420FEF75FF80020FEF75CF84F20FEF739
:102A200059F80020FEF756F86120FEF753F8002011
:102A3000FEF750F87920FEF74DF80020FEF74AF82F
:102A40008820FEF747F80020FEF744F89720FEF7AD
:102A500041F80020FEF73EF8A620FEF73BF80020E4
:102A6000FEF738F8B720FEF735F80020FEF732F809
:102A7000C220FEF72FF80020FEF72CF8C720FEF743
:102A800029F80020FEF726F8D120FEF723F80020D1
:102A9000FEF720F8D620FEF71DF80020FEF71AF802
:102AA000DD20FEF717F80020FEF714F8F320FEF7FC
:102AB00011F80020FEF70EF8E320FDF7FDFF0520DA
:102AC000FEF708F80020FEF705F80A20FEF702F8E6
:102AD0000020FDF7FFFF1C20FDF7FCFF0020FDF7A5
:102AE000F9FF3320FDF7F6FF0020FDF7F3FF442048
:102AF000FDF7F0FF0020FDF7EDFF5020FDF7EAFFA6
:102B00000020FDF7E7FF6220FDF7E4FF0020FDF75E
:102B1000E1FF7820FDF7DEFF0020FDF7DBFF8820D6
:102B2000FDF7D8FF0020FDF7D5FF9720FDF7D2FF76
:102B30000020FDF7CFFFA620FDF7CCFF0020FDF71A
:102B4000C9FFB720FDF7C6FF0020FDF7C3FFC22075
:102B5000FDF7C0FF0020FDF7BDFFC720FDF7BAFF5E
:102B60000020FDF7B7FFD120FDF7B4FF0020FDF7EF
:102B7000B1FFD520FDF7AEFF0020FDF7ABFFDD2054
:102B8000FDF7A8FF0020FDF7A5FFF320FDF7A2FF4A
:102B90000020FDF79FFFE420FDF78EFF0120FDF7E9
:102BA00099FF0020FDF796FF0120FDF793FF00201D
:102BB000FDF790FF0220FDF78DFF0020FDF78AFF53
:102BC0002A20FDF787FF0020FDF784FF3C20FDF75A
:102BD00081FF0020FDF77EFF4B20FDF77BFF0020EB
:102BE000FDF778FF5D20FDF775FF0020FDF772FF10
:102BF0007420FDF76FFF0020FDF76CFF8420FDF7C8
:102C000069FF0020FDF766FF9320FDF763FF0020BA
:102C1000FDF760FFA220FDF75DFF0020FDF75AFFE2
:102C2000B320FDF757FF0020FDF754FFBE20FDF74E
:102C300051FF0020FDF74EFFC420FDF74BFF0020A1
:102C4000FDF748FFCD20FDF745FF0020FDF742FFCF
:102C5000D320FDF73FFF0020FDF73CFFDD20FDF70F
:102C600039FF0020FDF736FFF320FDF733FF00208A
:102C7000FDF730FFE520FDF71FFF0020FDF72AFFDD
:102C80000020FDF727FF0020FDF724FF0020FDF7BF
:102C900021FF0220FDF71EFF0020FDF71BFF29206A
:102CA000FDF718FF0020FDF715FF3C20FDF712FF90
:102CB0000020FDF70FFF4B20FDF70CFF0020FDF774
:102CC00009FF5D20FDF706FF0020FDF703FF7420DC
:102CD000FDF700FF0020FDF7FDFE8420FDF7FAFE62
:102CE0000020FDF7F7FE9320FDF7F4FE0020FDF72E
:102CF000F1FEA220FDF7EEFE0020FDF7EBFEB32073
:102D0000FDF7E8FE0020FDF7E5FEBE20FDF7E2FE40
:102D10000020FDF7DFFEC420FDF7DCFE0020FDF7FC
:102D2000D9FECD20FDF7D6FE0020FDF7D3FED3203F
:102D3000FDF7D0FE0020FDF7CDFEDC20FDF7CAFE3A
:102D40000020FDF7C7FEF320FDF7C4FE0020FDF7CD
:102D5000C1FEE620FDF7B0FE1120FDF7BBFE00200E
:102D6000FDF7B8FE3420FDF7B5FE0020FDF7B2FEFA
:102D70005620FDF7AFFE0020FDF7ACFE7620FDF7F4
:102D8000A9FE0020FDF7A6FE7720FDF7A3FE002098
:102D9000FDF7A0FE6620FDF79DFE0020FDF79AFEE0
:102DA0008820FDF797FE0020FDF794FE9920FDF79F
:102DB00091FE0020FDF78EFEBB20FDF78BFE00206C
:102DC000FDF788FE9920FDF785FE0020FDF782FEC5
:102DD0006620FDF77FFE0020FDF77CFE5520FDF705
:102DE00079FE0020FDF776FE5520FDF773FE0020EA
:102DF000FDF770FE4520FDF76DFE0020FDF76AFE31
:102E00004320FDF767FE0020FDF764FE4420FDF738
:102E100061FE0020FDF75EFEE720FDF74DFE32204B
:102E2000FDF758FE0020FDF755FE5520FDF752FE38
:102E30000020FDF74FFE7620FDF74CFE0020FDF749
:102E400049FE6620FDF746FE0020FDF743FE6720A1
:102E5000FDF740FE0020FDF73DFE6720FDF73AFE3E
:102E60000020FDF737FE8720FDF734FE0020FDF738
:102E700031FE9920FDF72EFE0020FDF72BFEBB2032
:102E8000FDF728FE0020FDF725FE9920FDF722FE24
:102E90000020FDF71FFE7720FDF71CFE0020FDF748
:102EA00019FE4420FDF716FE0020FDF713FE562004
:102EB000FDF710FE0020FDF70DFE2320FDF70AFEB2
:102EC0000020FDF707FE3320FDF704FE0020FDF78C
:102ED00001FE4520FDF7FEFD0020FDF7FBFDE8208B
:102EE000FDF7EAFD0020FDF7F5FD0020FDF7F2FDFE
:102EF0009920FDF7EFFD0020FDF7ECFD8720FDF7A1
:102F0000E9FD0020FDF7E6FD8820FDF7E3FD002048
:102F1000FDF7E0FD7720FDF7DDFD0020FDF7DAFD90
:102F20006620FDF7D7FD0020FDF7D4FD8820FDF7D2
:102F3000D1FD0020FDF7CEFDAA20FDF7CBFD00203E
:102F4000FDF7C8FDBB20FDF7C5FD0020FDF7C2FD64
:102F50009920FDF7BFFD0020FDF7BCFD6620FDF7C1
:102F6000B9FD0020FDF7B6FD5520FDF7B3FD0020AB
:102F7000FDF7B0FD5520FDF7ADFD0020FDF7AAFDE2
:102F80004420FDF7A7FD0020FDF7A4FD4420FDF738
:102F9000A1FD0020FDF79EFD5520FDF79BFD0020C3
:102FA000FDF798FDE920FDF787FDAA20FDF792FDCA
:102FB0000020FDF78FFD0020FDF78CFD0020FDF7C0
:102FC00089FD0020FDF778FDAA20FDF783FDCF20C5
:102FD000FDF772FD0020FDF77DFD0020FDF77AFD75
:102FE0000020FDF777FD0020FDF774FD0020FDF7C0
:102FF00071FD0020FDF76EFD0020FDF76BFD002048
:10300000FDF768FD0020FDF765FD0020FDF762FD7E
:103010000020FDF75FFD0020FDF75CFD0020FDF7BF
:1030200059FD0020FDF756FD0020FDF753FD00205F
:10303000FDF750FD0020FDF74DFDF020FDF73CFDB4
:103040000020FDF747FD5020FDF744FD0020FDF76F
:1030500041FD0020FDF73EFD0020FDF73BFDF32084
:10306000FDF72AFD0020FDF735FDF920FDF724FDD1
:103070000620FDF72FFD1020FDF72CFD2920FDF780
:1030800029FD0020FDF726FD3A20FDF715FD55200E
:10309000FDF720FD1120FDF70FFD642003F035F949
:1030A0002920FDF709FD3520FDF706FD0020FDF77D
:1030B00011FD5120FDF700FDFF20FDF70BFD532012
:1030C000FDF7FAFC2C20FDF705FD5520FDF7F4FC7B
:1030D0008220FDF7FFFC2C20FDF7EEFC02F0C8BAC1
:1030E000FE48808845F2105188427DD155214FF429
:1030F0007040FDF72EFDAA214FF20100FDF729FDDA
:1031000052214FF20200FDF724FD08214FF2030087
:10311000FDF71FFD01214FF20400FDF71AFD0D21FF
:103120004FF43040FDF715FD0D214BF20100FDF786
:1031300010FD0D214BF20200FDF70BFD34214FF481
:103140003640FDF706FD34214BF20160FDF701FD2D
:1031500034214BF20260FDF7FCFC0D214FF43140AD
:10316000FDF7F7FC0D214BF20110FDF7F2FC0D21EC
:103170004BF20210FDF7EDFC34214FF43740FDF720
:10318000E8FC34214BF20170FDF7E3FC34214BF2F3
:103190000270FDF7DEFC00214FF43240FDF7D9FC50
:1031A00000214BF20120FDF7D4FC00214BF202205C
:1031B000FDF7CFFC24214FF43840FDF7CAFC242151
:1031C0004BF60100FDF7C5FC24214BF60200FDF78C
:1031D000C0FC01214FF43F40FDF7BBFC0F214FF431
:1031E0003340FDF7B6FC00E0FDE30F214BF2013068
:1031F000FDF7AFFC0F214BF20230FDF7AAFC3421A2
:103200004FF43940FDF7A5FC34214BF60110FDF7D2
:10321000A0FC34214BF60210FDF79BFC08214FF473
:103220003540FDF796FC08214BF20150FDF791FC6B
:1032300008214BF20250FDF78CFC03214FF4424071
:10324000FDF787FC24214FF43A40FDF782FC24214E
:103250004BF60120FDF77DFC24214BF60220FDF703
:1032600078FC00214FF43C40FDF773FC78214BF6CD
:103270000140FDF76EFC00214BF60240FDF769FCB2
:1032800000214FF43D40FDF764FC78214BF60150DE
:10329000FDF75FFC00214BF60250FDF75AFC0021C0
:1032A0004FF43E40FDF755FC64214BF60160FDF7FD
:1032B00050FC00214FF45140FDF74BFC33214DF2FF
:1032C0000110FDF746FC00214DF20210FDF741FC14
:1032D00034214DF20310FDF73CFC00214DF20410A7
:1032E000FDF737FC3A214DF20510FDF732FC0021C5
:1032F0004DF20610FDF72DFC4A214DF20710FDF7A7
:1033000028FC00214DF20810FDF723FC5C214DF252
:103310000910FDF71EFC00214DF20A10FDF719FC03
:1033200081214DF20B10FDF714FC00214DF20C1021
:10333000FDF70FFCA6214DF20D10FDF70AFC002150
:103340004DF20E10FDF705FCE5214DF20F10FDF7D3
:1033500000FC01214DF21010FDF7FBFB13214DF293
:103360001110FDF7F6FB01214DF21210FDF7F1FBF4
:1033700054214DF21310FDF7ECFB01214DF2141016
:10338000FDF7E7FB82214DF21510FDF7E2FB01216D
:103390004DF21610FDF7DDFBCA214DF21710FDF7B7
:1033A000D8FB02214DF21810FDF7D3FB00214DF29E
:1033B0001910FDF7CEFB02214DF21A10FDF7C9FBE3
:1033C00001214DF21B10FDF7C4FB02214DF21C1030
:1033D000FDF7BFFB34214DF21D10FDF7BAFB0221B2
:1033E0004DF21E10FDF7B5FB67214DF21F10FDF7E2
:1033F000B0FB02214DF22010FDF7ABFB84214DF212
:103400002110FDF7A6FB02214DF22210FDF7A1FBD2
:10341000A4214DF22310FDF79CFB02214DF2241054
:10342000FDF797FBB7214DF22510FDF792FB022126
:103430004DF22610FDF78DFBCF214DF22710FDF741
:1034400088FB02214DF22810FDF783FBDE214DF2AF
:103450002910FDF77EFB02214DF22A10FDF779FBC2
:10346000F2214DF22B10FDF774FB02214DF22C10CE
:10347000FDF76FFBFE214DF22D10FDF76AFB0321D6
:103480004DF22E10FDF765FB10214DF22F10FDF7C8
:1034900060FB03214DF23010FDF75BFB33214DF251
:1034A0003110FDF756FB03214DF23210FDF751FBB1
:1034B0006D214DF23310FDF74CFB00214FF45240CB
:1034C000FDF747FB33214DF20120FDF742FB0021C0
:1034D0004DF20220FDF73DFB342101E01E020020E9
:1034E0004DF20320FDF735FB00214DF20420FDF7DE
:1034F00030FB3A214DF20520FDF72BFB00214DF268
:103500000620FDF726FB4A214DF20720FDF721FB9F
:1035100000214DF20820FDF71CFB5C214DF2092033
:10352000FDF717FB00214DF20A20FDF712FB812168
:103530004DF20B20FDF70DFB00214DF20C20FDF7A5
:1035400008FBA6214DF20D20FDF703FB00214DF2F3
:103550000E20FDF7FEFAE5214DF20F20FDF7F9FAF6
:1035600001214DF21020FDF7F4FA13214DF2112044
:10357000FDF7EFFA01214DF21220FDF7EAFA54218E
:103580004DF21320FDF7E5FA01214DF21420FDF76D
:10359000E0FA82214DF21520FDF7DBFA01214DF210
:1035A0001620FDF7D6FACA214DF21720FDF7D1FA01
:1035B00002214DF21820FDF7CCFA00214DF219201E
:1035C000FDF7C7FA02214DF21A20FDF7C2FA0121D8
:1035D0004DF21B20FDF7BDFA02214DF21C20FDF734
:1035E000B8FA34214DF21D20FDF7B3FA02214DF255
:1035F0001E20FDF7AEFA67214DF21F20FDF7A9FA54
:1036000002214DF22020FDF7A4FA84214DF2212061
:10361000FDF79FFA02214DF22220FDF79AFAA4212C
:103620004DF22320FDF795FA02214DF22420FDF7FB
:1036300090FAB7214DF22520FDF78BFA02214DF2C9
:103640002620FDF786FACF214DF22720FDF781FADB
:1036500002214DF22820FDF77CFADE214DF22920CF
:10366000FDF777FA02214DF22A20FDF772FAF221D6
:103670004DF22B20FDF76DFA02214DF22C20FDF7C3
:1036800068FAFE214DF22D20FDF763FA03214DF279
:103690002E20FDF75EFA10214DF22F20FDF759FA8A
:1036A00003214DF23020FDF754FA33214DF2312041
:1036B000FDF74FFA03214DF23220FDF74AFA6D2152
:1036C0004DF23320FDF745FA00214FF45340FDF74A
:1036D00040FA33214DF20130FDF73BFA00214DF263
:1036E0000230FDF736FA34214DF20330FDF731FA9E
:1036F00000214DF20430FDF72CFA3A214DF205304D
:10370000FDF727FA00214DF20630FDF722FA4A2193
:103710004DF20730FDF71DFA00214DF20830FDF79C
:1037200018FA5C214DF20930FDF713FA00214DF231
:103730000A30FDF70EFA81214DF20B30FDF709FA40
:1037400000214DF20C30FDF704FAA6214DF20D30A8
:10375000FDF7FFF900214DF20E30FDF7FAF9E521F2
:103760004DF20F30FDF7F5F901214DF21030FDF764
:10377000F0F913214DF21130FDF7EBF901214DF273
:103780001230FDF7E6F954214DF21330FDF7E1F95F
:1037900001214DF21430FDF7DCF982214DF2153094
:1037A000FDF7D7F901214DF21630FDF7D2F9CA2104
:1037B0004DF21730FDF7CDF902214DF21830FDF72B
:1037C000C8F900214DF21930FDF7C3F902214DF27D
:1037D0001A30FDF7BEF901214DF21B30FDF7B9F9A2
:1037E00002214DF21C30FDF7B4F934214DF21D30A9
:1037F000FDF7AFF902214DF21E30FDF7AAF967215E
:103800004DF21F30FDF7A5F902214DF22030FDF7F2
:10381000A0F984214DF22130FDF79BF902214DF2F0
:103820002230FDF796F9A4214DF22330FDF791F9EE
:1038300002214DF22430FDF78CF9B7214DF22530ED
:10384000FDF787F902214DF22630FDF782F9CF21ED
:103850004DF22730FDF77DF902214DF22830FDF7BA
:1038600078F9DE214DF22930FDF773F902214DF28E
:103870002A30FDF76EF9F2214DF22B30FDF769F990
:1038800002214DF22C30FDF764F9FE214DF22D306E
:10389000FDF75FF903214DF22E30FDF75AF91021A3
:1038A0004DF22F30FDF755F903214DF23030FDF781
:1038B00050F933214DF23130FDF74BF903214DF230
:1038C0003230FDF746F96D214DF23330FDF741F905
:1038D00000214FF45440FDF73CF933214DF20140F3
:1038E000FDF737F900214DF20240FDF732F934219E
:1038F0004DF20340FDF72DF900214DF20440FDF794
:1039000028F93A214DF20540FDF723F900214DF247
:103910000640FDF71EF94A214DF20740FDF719F95F
:1039200000214DF20840FDF714F95C214DF20940E9
:10393000FDF70FF900214DF20A40FDF70AF9812148
:103940004DF20B40FDF705F900214DF20C40FDF75B
:1039500000F9A6214DF20D40FDF7FBF800214DF2D4
:103960000E40FDF7F6F8E5214DF20F40FDF7F1F8B6
:1039700001214DF21040FDF7ECF813214DF21140FA
:10398000FDF7E7F801214DF21240FDF7E2F854216E
:103990004DF21340FDF7DDF801214DF21440FDF723
:1039A000D8F882214DF21540FDF7D3F801214DF2F0
:1039B0001640FDF7CEF8CA214DF21740FDF7C9F8C1
:1039C00002214DF21840FDF7C4F800214DF21940D4
:1039D000FDF7BFF802214DF21A40FDF7BAF80121B8
:1039E0004DF21B4000E006E3FDF7B3F802214DF273
:1039F0001C40FDF7AEF834214DF21D40FDF7A9F84B
:103A000002214DF21E40FDF7A4F867214DF21F4040
:103A1000FDF79FF802214DF22040FDF79AF884212E
:103A20004DF22140FDF795F802214DF22240FDF7BD
:103A300090F8A4214DF22340FDF78BF802214DF2BE
:103A40002440FDF786F8B7214DF22540FDF781F8B7
:103A500002214DF22640FDF77CF8CF214DF22740A0
:103A6000FDF777F802214DF22840FDF772F8DE21CC
:103A70004DF22940FDF76DF802214DF22A40FDF785
:103A800068F8F2214DF22B40FDF763F802214DF268
:103A90002C40FDF75EF8FE214DF22D40FDF759F860
:103AA00003214DF22E40FDF754F810214DF22F4026
:103AB000FDF74FF803214DF23040FDF74AF833216E
:103AC0004DF23140FDF745F803214DF23240FDF74C
:103AD00040F86D214DF23340FDF73BF800214FF4E3
:103AE0005540FDF736F833214DF20150FDF731F81E
:103AF00000214DF20250FDF72CF834214DF2035015
:103B0000FDF727F800214DF20450FDF722F83A2185
:103B10004DF20550FDF71DF800214DF20650FDF75E
:103B200018F84A214DF20750FDF713F800214DF225
:103B30000850FDF70EF85C214DF20950FDF709F829
:103B400000214DF20A50FDF704F881214DF20B508F
:103B5000FCF7FFFF00214DF20C50FCF7FAFFA62105
:103B60004DF20D50FCF7F5FF00214DF20E50FCF721
:103B7000F0FFE5214DF20F50FCF7EBFF01214DF274
:103B80001050FCF7E6FF13214DF21150FCF7E1FF56
:103B900001214DF21250FCF7DCFF54214DF213507D
:103BA000FCF7D7FF01214DF21450FCF7D2FF822120
:103BB0004DF21550FCF7CDFF01214DF21650FCF7E8
:103BC000C8FFCA214DF21750FCF7C3FF02214DF286
:103BD0001850FCF7BEFF00214DF21950FCF7B9FF59
:103BE00002214DF21A50FCF7B4FF01214DF21B5097
:103BF000FCF7AFFF02214DF21C50FCF7AAFF342165
:103C00004DF21D50FCF7A5FF02214DF21E50FCF7AE
:103C1000A0FF67214DF21F50FCF79BFF02214DF2E0
:103C20002050FCF796FF84214DF22150FCF791FFC4
:103C300002214DF22250FCF78CFFA4214DF22350BB
:103C4000FCF787FF02214DF22450FCF782FFB721D9
:103C50004DF22550FCF77DFF02214DF22650FCF776
:103C600078FFCF214DF22750FCF773FF02214DF270
:103C70002850FCF76EFFDE214DF22950FCF769FF5A
:103C800002214DF22A50FCF764FFF2214DF22B5035
:103C9000FCF75FFF02214DF22C50FCF75AFFFE218A
:103CA0004DF22D50FCF755FF03214DF22E50FCF73D
:103CB00050FF10214DF22F50FCF74BFF03214DF226
:103CC0003050FCF746FF33214DF23150FCF741FFF5
:103CD00003214DF23250FCF73CFF6D214DF2335081
:103CE000FCF737FF00214FF45640FCF732FF332139
:103CF0004DF20160FCF72DFF00214DF20260FCF750
:103D000028FF34214DF20360FCF723FF00214DF220
:103D10000460FCF71EFF3A214DF20560FCF719FF25
:103D200000214DF20660FCF714FF4A214DF20760B6
:103D3000FCF70FFF00214DF20860FCF70AFF5C2141
:103D40004DF20960FCF705FF00214DF20A60FCF717
:103D500000FF81214DF20B60FCF7FBFE00214DF2CC
:103D60000C60FCF7F6FEA6214DF20D60FCF7F1FEAB
:103D700000214DF20E60FCF7ECFEE5214DF20F60E4
:103D8000FCF7E7FE01214DF21060FCF7E2FE132183
:103D90004DF21160FCF7DDFE01214DF21260FCF7DF
:103DA000D8FE54214DF21360FCF7D3FE01214DF2F1
:103DB0001460FCF7CEFE82214DF21560FCF7C9FEBF
:103DC00001214DF21660FCF7C4FECA214DF21760C6
:103DD000FCF7BFFE02214DF21860FCF7BAFE00218D
:103DE0004DF21960FCF7B5FE02214DF21A60FCF7A6
:103DF000B0FE01214DF21B60FCF7ABFE02214DF23B
:103E00001C60FCF7A6FE34214DF21D60FCF7A1FEFC
:103E100002214DF21E60FCF79CFE67214DF21F60EF
:103E2000FCF797FE02214DF22060FCF792FE842100
:103E30004DF22160FCF78DFE02214DF22260FCF76D
:103E400088FEA4214DF22360FCF783FE02214DF28F
:103E50002460FCF77EFEB7214DF22560FCF779FE69
:103E600002214DF22660FCF774FECF214DF227604F
:103E7000FCF76FFE02214DF22860FCF76AFEDE219E
:103E80004DF22960FCF765FE02214DF22A60FCF735
:103E900060FEF2214DF22B60FCF75BFE02214DF239
:103EA0002C60FCF756FEFE214DF22D60FCF751FE12
:103EB00003214DF22E60FCF74CFE10214DF22F60D5
:103EC000FCF747FE03214DF23060FCF742FE332140
:103ED0004DF23160FCF73DFE03214DF23260FCF7FC
:103EE00038FE6D214DF23360FCF733FE55214FF45F
:103EF0007040FCF72EFEAA214FF20100FCF729FECC
:103F000052214FF20200FCF724FE08214FF2030079
:103F1000FCF71FFE00214FF20400FCF71AFECC2133
:103F20004FF43140FCF715FE00214BF20110FCF775
:103F300010FE05214FF43640FCF70BFE70214FF4C4
:103F40003740FCF706FE70214BF20170FCF701FED2
:103F500001214FF43840FCF7FCFD03214BF6010032
:103F6000FCF7F7FD03214BF60200FCF7F2FD0321FD
:103F70004BF60300FCF7EDFD02214FF43C40FCF74B
:103F8000E8FD00214BF60140FCF7E3FD00214BF674
:103F90000240FCF7DEFDD0214FF44940FCF7D9FD8B
:103FA00002214CF60110FCF7D4FD50214CF6021012
:103FB000FCF7CFFD50214CF60310FCF7CAFD502151
:103FC0004CF60410FCF7C5FD00214FF45450FCF7EB
:103FD000C0FD55214FF46850FCF7BBFD4FF48850ED
:103FE000FCF76AFD782002F06CF94FF42450FCF7DE
:103FF00063FD01F03DBBFE48808849F225318842CF
:104000007ED147F6F001E520FCF7A3FD4FF4807167
:104010000120FCF79EFD4FF4E0610220FCF799FDC2
:1040200041F230010320FCF794FD00210420FCF74D
:1040300090FD40F202210820FCF78BFD00210920B1
:10404000FCF787FD00210A20FCF783FD00210C20EE
:10405000FCF77FFD00210D20FCF77BFD00210F20E8
:10406000FCF777FD00211020FCF773FD07211120DC
:10407000FCF76FFD00211220FCF76BFD00211320DF
:10408000FCF767FD00210720FCF763FD41F290611A
:104090001020FCF75EFD40F227211120FCF759FDAE
:1040A0009D211220FCF755FD4FF4C8511320FCF759
:1040B00050FD25212920FCF74CFD0D212B20FCF77C
:1040C00048FD07213020FCF744FD40F20331312048
:1040D000FCF73FFD03213220FCF73BFD40F20621B7
:1040E0003520FCF736FD08213620FCF732FD40F282
:1040F00006413720FCF72DFD4FF44171382000E0D8
:1041000057E0FCF726FD07213920FCF722FD40F29D
:1041100002613C20FCF71DFD08213D20FCF719FD44
:1041200000215020FCF715FDEF215120FCF711FD77
:1041300000215220FCF70DFD40F23F115320FCF707
:1041400008FD4FF427416020FCF703FD01216120A9
:10415000FCF7FFFC00216A20FCF7FBFC002180201B
:10416000FCF7F7FC00218120FCF7F3FC0021822002
:10417000FCF7EFFC00218320FCF7EBFC00218420FE
:10418000FCF7E7FC00218520FCF7E3FC10219020E0
:10419000FCF7DFFC4FF4C0619220FCF7DAFC40F240
:1041A00033110720FCF7D5FC22210020FCF7D1FCBD
:1041B0001FE78F48808849F2283188427ED141F23A
:1041C0008F01EC20FCF7C5FC41F23421EF20FCF715
:1041D000C0FC4FF480710120FCF7BBFC4FF4E061A0
:1041E0000220FCF7B6FC41F230010320FCF7B1FCE1
:1041F00000210420FCF7ADFC40F202210820FCF76E
:10420000A8FC00210920FCF7A4FC00210A20FCF7EF
:10421000A0FC01210C20FCF79CFC00210D20FCF7E8
:1042200098FC00210F20FCF794FC00211020FCF7E3
:1042300090FC07211120FCF78CFC00211220FCF7D8
:1042400088FC00211320FCF784FC01210720FCF7E7
:1042500080FC322002F059F841F290411020FCF726
:1042600078FC40F227211120FCF773FC322002F089
:104270004CF88A211220FCF76CFC322002F045F841
:104280004FF4D0511320FCF764FC06212920FCF7E1
:1042900060FC0D212B20FCF75CFC322002F035F88D
:1042A00000212020FCF755FC00212120FCF751FCC7
:1042B000322002F02AF80021302000E074E0FCF700
:1042C00048FC40F204613120FCF743FC40F2053128
:1042D0003220FCF73EFC00213520FCF73AFC40F68A
:1042E00009413620FCF735FC4FF401713720FCF70B
:1042F00030FC40F201313820FCF72BFC40F2077112
:104300003920FCF726FC00213C20FCF722FC40F67B
:104310000A213D20FCF71DFC322001F0F6FF0021B0
:104320005020FCF716FCEF215120FCF712FC002175
:104330005220FCF70EFC40F23F115320FCF709FC21
:104340004FF427416020FCF704FC01216120FCF7B9
:1043500000FC00216A20FCF7FCFB00218020FCF718
:10436000F8FB00218120FCF7F4FB00218220FCF700
:10437000F0FB00218320FCF7ECFB00218420FCF7FC
:10438000E8FB00218520FCF7E4FB10219020FCF7DE
:10439000E0FB4FF4C0619220FCF7DBFB40F23311ED
:1043A0000720FCF7D6FB24E61148808849F2253126
:1043B00088427CD147F6F001E520FCF7CAFB4FF4B8
:1043C00080710120FCF7C5FB4FF4E0610220FCF78F
:1043D000C0FB41F230010320FCF7BBFB00210420AD
:1043E000FCF7B7FB40F202210820FCF7B2FB01E02A
:1043F0001E02002000210920FCF7ABFB00210A204F
:10440000FCF7A7FB00210C20FCF7A3FB00210D20EB
:10441000FCF79FFB00210F20FCF79BFB00211020E5
:10442000FCF797FB07211120FCF793FB00211220DA
:10443000FCF78FFB00211320FCF78BFB00210720EA
:10444000FCF787FB41F290611020FCF782FB40F201
:1044500027211120FCF77DFB9D211220FCF779FB21
:104460004FF4C8511320FCF774FB25212920FCF7D9
:1044700070FB0D212B20FCF76CFB07213020FCF793
:1044800068FB40F203313120FCF763FB032132204B
:10449000FCF75FFB40F206213520FCF75AFB0821B0
:1044A0003620FCF756FB40F20641372000E05CE086
:1044B000FCF74FFB4FF441713820FCF74AFB072112
:1044C0003920FCF746FB40F202613C20FCF741FB3F
:1044D00008213D20FCF73DFB00215020FCF739FB73
:1044E000EF215120FCF735FB00215220FCF731FB76
:1044F00040F23F115320FCF72CFB4FF42741602082
:10450000FCF727FB01216120FCF723FB00216A2037
:10451000FCF71FFB00218020FCF71BFB0021812002
:10452000FCF717FB00218220FCF713FB00218320FE
:10453000FCF70FFB00218420FCF70BFB00218520FA
:10454000FCF707FB10219020FCF703FB4FF4C06140
:104550009220FCF7FEFA40F233110720FCF7F9FA3B
:1045600022210020FCF7F5FA43E5FE48808849F255
:10457000283188427ED141F28F01EC20FCF7E9FA24
:1045800041F23421EF20FCF7E4FA4FF4807101206E
:10459000FCF7DFFA4FF4E0610220FCF7DAFA41F2AF
:1045A00030010320FCF7D5FA00210420FCF7D1FAF2
:1045B00040F202210820FCF7CCFA00210920FCF788
:1045C000C8FA00210A20FCF7C4FA01210C20FCF7EC
:1045D000C0FA00210D20FCF7BCFA00210F20FCF7E7
:1045E000B8FA00211020FCF7B4FA07211120FCF7DB
:1045F000B0FA00211220FCF7ACFA00211320FCF7DE
:10460000A8FA01210720FCF7A4FA322001F07DFE70
:1046100041F290411020FCF79CFA40F22721112032
:10462000FCF797FA322001F070FE8A211220FCF785
:1046300090FA322001F069FE4FF4D0511320FCF7BC
:1046400088FA06212920FCF784FA0D212B20FCF79B
:1046500080FA322001F059FE00212020FCF779FA7F
:1046600000212120FCF775FA322001F04EFE0021D6
:10467000302000E074E0FCF76CFA40F20461312075
:10468000FCF767FA40F205313220FCF762FA0021AC
:104690003520FCF75EFA40F609413620FCF759FA5E
:1046A0004FF401713720FCF754FA40F20131382001
:1046B000FCF74FFA40F207713920FCF74AFA002163
:1046C0003C20FCF746FA40F60A213D20FCF741FA6F
:1046D000322001F01AFE00215020FCF73AFAEF21B7
:1046E0005120FCF736FA00215220FCF732FA40F252
:1046F0003F115320FCF72DFA4FF427416020FCF7BF
:1047000028FA01216120FCF724FA00216A20FCF735
:1047100020FA00218020FCF71CFA00218120FCF700
:1047200018FA00218220FCF714FA00218320FCF7FC
:1047300010FA00218420FCF70CFA00218520FCF7F8
:1047400008FA10219020FCF704FA4FF4C06192207F
:10475000FCF7FFF940F233110720FCF7FAF948E4BF
:104760008048808849F2203188427DD10021084666
:10477000FCF7EFF94FF480710120FCF7EAF94FF4F0
:10478000E0610220FCF7E5F941F230010320FCF77B
:10479000E0F900210420FCF7DCF940F202210820B6
:1047A000FCF7D7F900210920FCF7D3F900210A20F2
:1047B000FCF7CFF901210C20FCF7CBF900210D20EB
:1047C000FCF7C7F900210F20FCF7C3F9322001F0F4
:1047D0009CFD40F201110720FCF7BBF9322001F0EB
:1047E00094FD4FF486511020FCF7B3F907211120F6
:1047F000FCF7AFF94FF488711220FCF7AAF94FF4D7
:1048000030611320FCF7A5F900212920FCF7A1F95C
:1048100044F210012B20FCF79CF900215020FCF7FA
:1048200098F9EF215120FCF794F900215220FCF770
:1048300090F940F23F115320FCF78BF94FF41C51D3
:104840006020FCF786F901216120FCF782F9002144
:104850006A20FCF77EF900218020FCF77AF900211C
:104860008120FCF776F900E02EE000218220FCF7A1
:1048700070F900218320FCF76CF900218420FCF7FB
:1048800068F900218520FCF764F910219020FCF7DD
:1048900060F900219220FCF75CF901219320FCF7DC
:1048A00058F94FF488719520FCF753F900219720AF
:1048B000FCF74FF900219820FCF74BF940F27311F7
:1048C0000720FCF746F973E42648808849F2313125
:1048D00088427DD141F21401E720FCF73AF94FF408
:1048E00080710120FCF735F94FF400710220FCF7CC
:1048F00030F941F238010320FCF72BF940F2022194
:104900000820FCF726F900210920FCF722F90021F4
:104910000A20FCF71EF900210C20FCF71AF90021EF
:104920000D20FCF716F900210F20FCF712F90021E9
:104930001020FCF70EF907211120FCF70AF90021DD
:104940001220FCF706F900211320FCF702F9C82019
:1049500001F0DBFC41F290611020FCF7FAF840F224
:10496000272101E01E0200201120FCF7F2F832207E
:1049700001F0CBFC0C211220FCF7EBF8322001F007
:10498000C4FC4FF400611320FCF7E3F81121292047
:10499000FCF7DFF80B212B20FCF7DBF8322001F0CD
:1049A000B4FC00212020FCF7D4F840F23F11212074
:1049B000FCF7CFF800213020FCF7CBF84FF48371DF
:1049C0003120FCF7C6F800213220FCF7C2F800E0E5
:1049D00067E04FF401713520FCF7BBF841F20A6142
:1049E0003620FCF7B6F840F207713720FCF7B1F833
:1049F0004FF483713820FCF7ACF840F2077139208E
:104A0000FCF7A7F840F202413C20FCF7A2F840F680
:104A10000F413D20FCF79DF800215020FCF799F84C
:104A2000EF215120FCF795F800215220FCF791F876
:104A300040F23F115320FCF78CF84FF41C516020DA
:104A4000FCF787F801216120FCF783F800216A2038
:104A5000FCF77FF800218020FCF77BF80021812003
:104A6000FCF777F800218220FCF773F800218320FF
:104A7000FCF76FF800218420FCF76BF800218520FB
:104A8000FCF767F810219020FCF763F84FF4C06141
:104A90009220FCF75EF840F233110720FCF759F83A
:104AA00081E4FE48808845F2084188427ED14FF477
:104AB00080710120FCF74DF84FF4E0610220FCF713
:104AC00048F841F230010320FCF743F800210420AC
:104AD000FCF73FF840F207210820FCF73AF80021E4
:104AE0000920FCF736F800210A20FCF732F80021F3
:104AF0000C20FCF72EF800210D20FCF72AF80021ED
:104B00000F20FCF726F8142001F0FFFB41F2B06102
:104B10001020FCF71EF801211120FCF71AF80121E2
:104B20001720FCF716F84FF49C711220FCF711F8CF
:104B30004FF400611320FCF70CF809212920FCF741
:104B400008F809212A20FCF704F80021A420FCF72A
:104B500000F800215020FBF7FCFFEF215120FBF76C
:104B6000F8FF00215220FBF7F4FF40F23F115320E1
:104B7000FBF7EFFF4FF41C516020FBF7EAFF012128
:104B80006120FBF7E6FF00216A20FBF7E2FF00212E
:104B90008020FBF7DEFF00218120FBF7DAFF0021F8
:104BA0008220FBF7D6FF0021832000E023E0FBF703
:104BB000D0FF00218420FBF7CCFF00218520FBF7EC
:104BC000C8FF13219020FBF7C4FF00219220FBF7C0
:104BD000C0FF03219320FBF7BCFF4FF488719520A1
:104BE000FBF7B7FF40F273110720FBF7B2FF32204B
:104BF00001F08BFBB8E4A948808841F20551884256
:104C00007ED100210720FBF7A4FF322001F07DFBBD
:104C10004FF48E711220FBF79CFF0121A420FBF7BB
:104C200098FF0F210820FBF794FF08210A20FBF7CB
:104C300090FF08210D20FBF78CFF40F20771302018
:104C4000FBF787FF07213120FBF783FF40F2036169
:104C50003220FBF77EFF4FF4E0613320FBF779FF52
:104C600040F202213420FBF774FF02213520FBF7CC
:104C700070FF41F60F713620FBF76BFF40F20771B2
:104C80003720FBF766FF00213820FBF762FF002189
:104C90003920FBF75EFF40F207713A20FBF759FF1E
:104CA00000213B20FBF755FF07213C20FBF751FF7C
:104CB00000213D20FBF74DFF322001F026FB0121B2
:104CC0000720FBF746FF01211720FBF742FF3220A8
:104CD00001F01BFB4FF4BD511020FBF73AFF40F2EF
:104CE00017211120FBF735FF4FF48F711220FBF7CE
:104CF00030FF4FF470611320FBF72BFF002100E021
:104D000094E02A20FBF725FF0A212920FBF721FF49
:104D10004FF49F711220FBF71CFF00215020FBF77E
:104D200018FFEF215120FBF714FF00215220FBF761
:104D300010FF40F23F115320FBF70BFF4FF41C51C3
:104D40006020FBF706FF01216120FBF702FF002135
:104D50006A20FBF7FEFE00218020FBF7FAFE00210F
:104D60008120FBF7F6FE00218220FBF7F2FE0021F6
:104D70008320FBF7EEFE00218420FBF7EAFE0021F2
:104D80008520FBF7E6FE13219020FBF7E2FE4FF4AF
:104D900040719220FBF7DDFE05219320FBF7D9FE41
:104DA00000219520FBF7D5FE00219720FBF7D1FECF
:104DB00000219820FBF7CDFE4FF480710120FBF716
:104DC000C8FE4FF4E0610220FBF7C3FE41F2380158
:104DD0000320FBF7BEFE00210420FBF7BAFE0021F2
:104DE0000C20FBF7B6FE00210F20FBF7B2FE0021DE
:104DF0002020FBF7AEFE00212120FBF7AAFE212197
:104E00000720FBF7A6FE142001F07FFA612107209E
:104E1000FBF79FFE142001F078FA40F2731107208F
:104E2000FBF797FE142001F070FA98E41B48808885
:104E30004BF2055188427DD100210846FBF789FEDF
:104E400000210846FBF785FE00210846FBF781FE9E
:104E500000210846FBF77DFE0121A420FBF779FE27
:104E6000142001F052FA4FF41C516020FBF771FE40
:104E700040F202210820FBF76CFE4FF40571302050
:104E8000FBF767FE43F215713120FBF762FE40F23B
:104E900004613220FBF75DFE02E000001E020020EC
:104EA00040F616613320FBF754FE42F21121342004
:104EB000FBF74FFE4FF4A8513520FBF74AFE48F2AE
:104EC00007513620FBF745FE41F207413720FBF73B
:104ED00040FE41F203413820FBF73BFE2021392000
:104EE000FBF737FE1A219020FBF733FE002110203C
:104EF000FBF72FFE07211120FBF72BFE00211220CC
:104F0000FBF727FE00211320FBF723FE142001F0FE
:104F1000FCF94FF4E6611020FBF71BFE40F237115D
:104F20001120FBF716FE142001F0EFF94FF4DC71AD
:104F3000122000E088E0FBF70CFE142001F0E5F9F8
:104F40004FF470611320FBF704FE80212A20FBF749
:104F500000FE48212920FBF7FCFD142001F0D5F9C3
:104F60004FF480710120FBF7F4FD4FF4E061022063
:104F7000FBF7EFFD41F238010320FBF7EAFD40F2B9
:104F800002210820FBF7E5FD00210A20FBF7E1FDE7
:104F900000210C20FBF7DDFD00210D20FBF7D9FDE2
:104FA00030210E20FBF7D5FD00215020FBF7D1FD6D
:104FB000EF215120FBF7CDFD00215220FBF7C9FD69
:104FC00040F23F115320FBF7C4FD4FF41C51602009
:104FD000FBF7BFFD01216120FBF7BBFD00216A202B
:104FE000FBF7B7FD11219020FBF7B3FD4FF4C06133
:104FF0009220FBF7AEFD40F202419320FBF7A9FDA2
:1050000002219420FBF7A5FD142001F07EF9012177
:105010000720FBF79EFD142001F077F9612107209E
:10502000FBF797FD40F273110720FBF792FD00217B
:105030002020FBF78EFD00212120FBF78AFD222195
:105040000020FBF786FD13E3FE4880884CF20551F3
:1050500088427CD100210846FBF77BFD00210846F1
:10506000FBF777FD142001F050F900210846FBF70B
:1050700070FD00210846FBF76CFD00210846FBF798
:1050800068FD00210846FBF764FD0121A420FBF721
:1050900060FD142001F039F94FF41C516020FBF73A
:1050A00058FD40F606010820FBF753FD40F203715E
:1050B0003020FBF74EFD01213120FBF74AFD042192
:1050C0003220FBF746FD4FF481713320FBF741FDA1
:1050D0004FF440713420FBF73CFD40F203113520C2
:1050E000FBF737FD1F213620FBF733FD40F203713C
:1050F0003720FBF72EFD01213820FBF72AFD042184
:105100003920FBF726FD15219020FBF722FD4FF4F7
:1051100082611020FBF71DFD40F247211120FBF7B3
:1051200018FD4FF4DE711220FBF713FD4FF46061A0
:105130001320FBF70EFD782001F0E7F84FF48071A3
:105140000120FBF706FD4FF40071022000E052E061
:10515000FBF7FFFC41F230010320FBF7FAFC0821CA
:105160000A20FBF7F6FC00210C20FBF7F2FC2021C3
:105170000E20FBF7EEFC00210F20FBF7EAFC0021DC
:105180002020FBF7E6FC00212120FBF7E2FC3D217B
:105190002A20FBF7DEFC142001F0B7F82D2129208E
:1051A000FBF7D7FC00215020FBF7D3FC4DF2EF01B9
:1051B0005120FBF7CEFC00215220FBF7CAFC40F245
:1051C0003F115320FBF7C5FC00216120FBF7C1FC18
:1051D00000216A20FBF7BDFC4FF440719220FBF7E1
:1051E000B8FC05219320FBF7B4FC4FF48071072035
:1051F000FBF7AFFC3CE29348808848F6891188426F
:105200007DD101210020FBF7A4FC4AF6A401032074
:10521000FBF79FFC00210C20FBF79BFC40F60C01E8
:105220000D20FBF796FC4FF42C510E20FBF791FC60
:10523000B0211E20FBF78DFC42F63F310120FBF729
:1052400088FC4FF4C0610220FBF783FC0021102092
:10525000FBF77FFC46F278011120FBF77AFC002176
:105260000520FBF776FC00210620FBF772FC4EF6CA
:105270001C711620FBF76DFC03211720FBF769FC5E
:1052800040F233210720FBF764FC00210B20FBF7E1
:1052900060FC00210F20FBF75CFC00214120FBF7A4
:1052A00058FC00214220FBF754FC00214820FBF76A
:1052B00050FC40F23F114920FBF74BFC00214A20F3
:1052C000FBF747FC00214B20FBF743FC4FF46F41F9
:1052D0004420FBF73EFC00214520FBF73AFC40F25E
:1052E0003F114620FBF735FC40F207713020FBF7F9
:1052F00030FC4FF401713120FBF72BFC00E03DE066
:105300004FF401713220FBF724FC40F202513320AC
:10531000FBF71FFC40F207513420FBF71AFC4FF457
:1053200001713520FBF715FC4FF401713620FBF7B6
:1053300010FC40F202513720FBF70BFC40F2023127
:105340003A20FBF706FC40F202313B20FBF701FC60
:1053500000212320FBF7FDFB00212420FBF7F9FBB4
:105360004FF400412520FBF7F4FB00214F20FBF711
:10537000F0FB00214E20FBF7ECFB79E131488088FF
:1053800044F2315188427CD101210020FBF7E1FB3E
:105390000A2000F0BAFF41F228611020FBF7D9FB88
:1053A0000E211220FBF7D5FB40F639211320FBF725
:1053B000D0FB0A2000F0A9FF40211120FBF7C9FB18
:1053C00050211520FBF7C5FB0A2000F09EFF1E218F
:1053D0001220FBF7BEFB0A2000F097FF4FF4B151FB
:1053E0001020FBF7B6FB42F639211320FBF7B1FB87
:1053F0000A2000F08AFF4FF480710120FBF7A9FB1F
:105400004FF440710220FBF7A4FB41F23801032066
:10541000FBF79FFB40F202210820FBF79AFB0821D3
:105420000A20FBF796FB00213020FBF792FB40F2AD
:1054300002413120FBF78DFB4FF483713220FBF7E3
:1054400088FB01E01E02002040F203513320FBF7ED
:1054500080FB4FF482713420FBF77BFB40F201317B
:105460003520FBF776FB40F207713620FBF771FB26
:1054700040F205313720FBF76CFB4FF40271382006
:1054800000E040E0FBF765FB40F60B713920FBF7CD
:1054900060FB02214120FBF75CFB4FF41C516020B4
:1054A000FBF757FB01216120FBF753FB4FF404711D
:1054B0009020FBF74EFB4FF485719220FBF749FBE0
:1054C00004219320FBF745FB4FF48071A020FBF7EC
:1054D00040FB01210720FBF73CFB21210720FBF7C4
:1054E00038FB23210720FBF734FB33210720FBF790
:1054F00030FB40F233110720FBF72BFB0021A020EB
:10550000FBF727FBB4E0FE48808844F2355188421F
:10551000F8D130211520FBF71CFB10219A20FBF756
:1055200018FB20211120FBF714FB43F22841102027
:10553000FBF70FFB02211220FBF70BFB41F23801B6
:105540001320FBF706FB282000F0DFFE122108469F
:10555000FBF7FFFA282000F0D8FE43F2204110208C
:10556000FBF7F7FA43F238011320FBF7F2FA462073
:1055700000F0CBFE00213020FBF7EBFA40F20241B5
:105580003120FBF7E6FA40F207313220FBF7E1FA6F
:105590004FF441713320FBF7DCFA04213420FBF790
:1055A000D8FA40F201413520FBF7D3FA40F20771F7
:1055B0003620FBF7CEFA40F205313720FBF7C9FA67
:1055C0004FF4C2613820FBF7C4FA4FF4C2613920AE
:1055D000FBF7BFFA4FF480710120FBF7BAFA4FF4E2
:1055E00040710220FBF7B5FA41F230010320FBF7CE
:1055F000B0FA40F608010820FBF7ABFA08210A20B0
:10560000FBF7A7FA4FF41C516020FBF7A2FA012127
:105610006120FBF79EFA4FF49F719020FBF799FAF7
:105620004FF480719220FBF794FA4FF4807193202D
:10563000FBF78FFA4FF44051A020FBF78AFA1021B4
:10564000A320FBF786FA01210720FBF782FA21212C
:105650000720FBF77EFA23210720FBF77AFA332194
:105660000720FBF776FA40F233110720FBF771FAB7
:105670000020FCF749F80120A24908604FF6FF70AE
:10568000FCF7A4FA10BD2DE9FC4F05460E4617465F
:105690009846DDF82C90002001909948808846F6C5
:1056A0000401884229D196488079012825D1AB464A
:1056B000354693480088C01B401E86B24746904836
:1056C0000088A0EB0B00401E1FFA80F800208C49D8
:1056D00088712A2048812B20888143463A463146EA
:1056E0002846CDF80090FFF7CEFF0120844988714D
:1056F0002B2048812A20888127E0781B401C80B21B
:10570000019034461FE021462846FBF75FFAFBF77D
:105710003CFA4FF0000A11E04FF480707A490861BA
:10572000400048617948C0F80090802048610861D5
:10573000800008610AF101001FFA80FA0198824591
:10574000EADB601C84B24445DDDDBDE8FC8F2DE959
:10575000F84F07460D4690469946DDF828B0A8EB6D
:105760000700401C1FFA80FAA9EB0500401C80B21C
:105770000090002420E0281981B23846FBF726FA71
:10578000FBF703FA002613E04FF480705E490861CE
:105790004000486104FB0A603BF810005B49086068
:1057A000802059494861086180000861701C86B2F8
:1057B0005645E9DB601C84B200988442DBDBBDE81F
:1057C000F88F2DE9FF4F84B081468A460020039070
:1057D00002900698A0EB09050798A0EB0A06CDF801
:1057E0000490CDF800A0002D01DD012705E00DB9E2
:1057F000002702E04FF0FF376D42002E02DD4FF030
:10580000010806E016B94FF0000802E04FF0FF383B
:105810007642B54201DD2C4600E034464FF0000BE5
:1058200021E0009A91B2019A90B2FBF723FE03980F
:10583000284403900298304402900398A04205DD6A
:105840000398001B03900198384401900298A042ED
:1058500005DD0298001B02900098404400900BF177
:1058600001001FFA80FB601C8345DADD08B0BDE84B
:10587000F08FF0B504460D4616461F462B463246BD
:1058800029462046FFF79DFF3B46224629462046F3
:10589000FFF797FF3B46324639462046FFF791FF18
:1058A0003B46324629463046FFF78BFFF0BD2DE9D7
:1058B000F04306460F469046002445460320A0EBE1
:1058C000480952E03A1B91B2721B90B2FBF7D2FD2D
:1058D0003A1B91B2721990B2FBF7CCFD7A1991B2D2
:1058E000321B90B2FBF7C6FD3A1B91B2721B90B20D
:1058F000FBF7C0FD7A1B91B2321B90B208E00000AA
:105900001E020020A8012242001001400C0C0140A0
:10591000FBF7B0FD3A1991B2721990B2FBF7AAFDEC
:105920007A1B91B2321990B2FBF7A4FD7A1991B2A9
:10593000321990B2FBF79EFD3A1991B2721B90B2E8
:10594000FBF798FD641CB9F1000F03DAA000801D7D
:10595000814404E0601B80000A3081446D1E7A1986
:1059600091B2321990B2FBF785FDAC42AADDBDE8D9
:10597000F0832DE9F84F0746884616461C46C34675
:105980002046E31704EB5373DB1021464FEAE47C17
:1059900004EB5C7C4FEAEC0CA4EBCC0CBCF1000FEC
:1059A00002D04FF0010C01E04FF0000C634422469E
:1059B00004EBD27C4FEA6C0C03FB0CF3DBB20093DC
:1059C000A6F12000C6B2002554E0102C05D19F4856
:1059D00000EB061010F8059013E0182C07D106EB29
:1059E000C6009B4901EB800010F8059009E0202CCF
:1059F00005D1984800EB861010F8059001E0BDE84D
:105A0000F88F4FF0000A2FE009F0800030B1924883
:105A1000028841463846FBF747FD07E00A9828B957
:105A20008E48028841463846FBF73EFD4FEA496002
:105A30004FEA106908F101001FFA80F888480088D1
:105A4000B84200DCDBE7A8EB0B00A04208D1D84647
:105A5000781C87B282480088B84200DCCFE706E0B5
:105A60000AF1010000F0FF0ABAF1080FCCDB00BF19
:105A7000681CC5B200988542A7DB00BFBFE710B520
:105A80000246012000E050430B00A1F10104E1B205
:105A9000F9D110BD2DE9FF4F81B0074691461E4652
:105AA0000E9D4FF0000A002439E0301B401EC1B2A9
:105AB0000A20FFF7E4FFB9FBF0F00A21B0FBF1F296
:105AC00001FB1208BAF1000F16D1701EA04213DDBF
:105AD000B8F1000F0ED10020AB4605EBDB71491089
