:020000040800F2
:10000000D0070020490200084D0200084F020008F6
:1000100051020008530200085502000800000000C9
:10002000000000000000000000000000570200086F
:1000300059020008000000005B0200085D02000891
:100040005F0200085F0200085F02000861640008A8
:100050005F0200085F020008991500085F020008AF
:10006000CD1500085F020008E91500085F020008CE
:100070005F0200085F0200085F0200085F020008DC
:100080005F0200085F0200085F0200085F020008CC
:100090005F0200085F0200085F0200085F020008BC
:1000A0005F0200085F0200085F0200085F020008AC
:1000B0005F020008D5670008056900085F020008B4
:1000C0005F0200085F0200085F0200085F0200088C
:1000D0005F020008916900085F0200085F020008E3
:1000E0005F0200085F0200085F0200085F0200086C
:1000F0005F0200085F0200085F0200085F0200085C
:100100005F0200085F0200085F0200085F0200084B
:100110005F0200085F0200085F0200085F0200083B
:100120005F0200085F0200085F0200085F0200082B
:1001300000F002F800F078F80AA090E8000C824481
:100140008344AAF10107DA4501D100F06DF8AFF25E
:10015000090EBAE80F0013F0010F18BFFB1A43F0A5
:10016000010318472C0E01004C0E01000A444FF009
:10017000000C10F8013B13F0070408BF10F8014B06
:100180001D1108BF10F8015B641E05D010F8016B4B
:10019000641E01F8016BF9D113F0080F1EBF10F8AF
:1001A000014BAD1C0C1B09D16D1E58BF01F801CBD2
:1001B000FAD505E014F8016B01F8016B6D1EF9D555
:1001C0009142D6D37047000000230024002500266A
:1001D000103A28BF78C1FBD8520728BF30C148BFAA
:1001E0000B607047662909F06C80642900F0B880C4
:1001F000752900F0B580782900F0EC80632900F0C3
:100200008684732900F08B84002070471FB500F0AE
:10021000E6F900F09BFC04000020002108F0E2F861
:10022000E0601FBD10B510BD00F08EFD1146FFF758
:10023000EDFF06F0A7FE00F0ACFD03B4FFF7F2FF00
:1002400003BC06F002FC000008480047FEE7FEE79A
:10025000FEE7FEE7FEE7FEE7FEE7FEE7FEE7FEE776
:1002600003480449024A044B70470000310100086A
:10027000D0030020D0070020D003002070470000EA
:100280000FB4044910B503AA029800F04DFC10BC4D
:100290005DF814FB080000200FB41CB5074B06AA3C
:1002A0007B4469460090059800F00FFC00206946E9
:1002B00000F01EFC1CBC5DF814FB00004D080000A3
:1002C00070B5044685690068C10601D5302600E096
:1002D0002026C00707D070BDD4E9012130469047E1
:1002E000206A401C20626D1EF6D570BD70B50446B4
:1002F00085690078C00707D170BDD4E901212020AD
:100300009047206A401C20626D1EF6D570BD70B506
:100310000C460546012A05D02878800600D5EA69F2
:10032000002302E0012305E05B1C934202D2E05C63
:100330000028F9D1A869E618C01AA861286A1844EB
:1003400028622846FFF7BCFF04E0D5E9012114F834
:10035000010B9047B442F8D32846FFF7C7FF70BDA2
:100360002DE9F0410646002410687529314615A58F
:1003700010D0AFF30080002802DA404212A507E057
:1003800031688A0701D511A502E0490704D510A5F7
:10039000012401E0AFF3008000210A2306F12407C5
:1003A00007E0B0FBF3F203FB120030307854104644
:1003B000491C0028F5D123462A463046BDE8F041C5
:1003C00000F01AB9000000002D0000002B00000012
:1003D0002000000070B504460D4621461068AFF3BA
:1003E00000802188090502D50F4A7A4402E00E4AAE
:1003F0007A440E32002104F1240305E000F00F06D8
:100400000009965D5E54491C0028F7D1207800232E
:10041000000704D5702D02D009B102231132204605
:10042000BDE8704000F0E8B8240801002DE9F05F55
:10043000894604464FF0000ADFF874B1FB44C0F867
:1004400020A02046E1688847002874D0252806D0DF
:10045000D4E901219047206A401C2062F1E7002680
:100460005F462046E16888472028054607DB312D96
:1004700005D2781910F8200C08B10643F1E7B0074F
:1004800001D526F00406C4F81CA00027C4F818A063
:100490002A2D09D0284606F0D1FA38B304EB870894
:1004A000303DC8F8185019E059F8041B204604EBF9
:1004B00087029161E1688847012F054618D1E069FC
:1004C000002820DA26F020061DE0D8F8180000EBFE
:1004D000800005EB40003038C8F818002046E1687D
:1004E0008847054606F0AAFA0028EED1012F0AD067
:1004F0002E2D08D12046E16888477F1C0546022F33
:1005000046F02006C4DBA069002803DA404246F02A
:100510000106A061F00701D026F010066C2D0BD06B
:10052000682D09D04C2D39D06A2D35D0742D35D099
:100530007A2D33D016E038E0E1682F462046884710
:10054000B842054609D16C2F26D04FF48060E1688F
:10055000064320468847054604E06C2F1AD04FF426
:10056000807006430DB3A5F14100192802D820354B
:1005700046F400664A462946204626604E46FFF766
:1005800031FE80B101280BD0F61D26F0070000F1E6
:10059000080956E74020E4E78020D8E70020D6E7A6
:1005A00006F104094DE7284652E7206ABDE8F09FAE
:1005B000FA0701000B4910B5A1F17C020A4CC2E90F
:1005C0003712372106E000EB104342F82130074B89
:1005D00000FB03400B1EA1F10101F4DC10BD012062
:1005E000E8E7000008030020E119D666CD0D010000
:1005F00070477047704770472DE9F0470D469946A0
:100600009246044600F124080168880604D5E06992
:1006100021F01001216000E00120A84201DD471B0C
:1006200000E00027A1697A1902EB0900081AA0610D
:100630002078C00602D42046FFF742FE002608E0DC
:10064000D4E901211AF806009047206A401C761C64
:1006500020624E45F4DB2078C0060AD52046FFF71D
:100660002FFE06E0D4E9012130209047206A401C8B
:100670002062381EA7F10107F4DC07E0D4E901216C
:1006800018F805009047206A401C2062281EA5F13A
:100690000105F3DC2046FFF729FE2078000602D58D
:1006A0000220BDE8F0870120FBE770472DE9FF4FEE
:1006B0000C461E464FF0FF378BB0D2E90001DDF843
:1006C00060800A908A46C1F30A5505B93D4600216B
:1006D00008464FF00000BAF1000F00F4400005DAC0
:1006E00000EB80004FF4400101EA50004FEA9059BE
:1006F000B9F1010F00DDB9460A9850EA4A000ED060
:1007000044F61050A5F2FF3545432F14B8F1000F01
:100710001ED07542291E1EDDC9F100021CE0B8F191
:10072000010F4FF0000001D0302103E0F24305E05B
:100730002154401CB042FBDB3046002200212154F2
:100740000B99C1F80880C1E900200FB0BDE8F08F17
:10075000BD1B6D1CDEE74A4600DA694206A800F0C0
:100760007FFA06AB93E8070003AB83E80700504627
:100770000A9900F055FB8DE80700A0F500501F38DE
:1007800000900398002D09DD42F21F014A460844FB
:1007900003A90390684600F0B4FD08E0A0F50050FE
:1007A0004A461F3803A90390684600F0BEFD8DE855
:1007B00007000004000C03D04FF0FF30410800E0B8
:1007C0001046B8F1000F03D00022009215461EE03B
:1007D000751E05D400F0BEF9303262556D1EF9D594
:1007E000B3460122084302D000227F1C04E0207897
:1007F000302801D100227F1E002A099786D01DE0F3
:10080000112D07DA00F0A6F9303262556D1C50EA5E
:100810000102F5D1084302D00098C8B10EE00021D2
:10082000681E05E0235C625C63542254401E491C30
:100830008142F7DBAB46A81B401E0990002004F85C
:100840000B000B98099AC0F80880C0E9002B7CE7E0
:1008500011264FF0000859E72DE9F04F884604466D
:10086000D21D22F0070191B0D1E90001CDE90A01C2
:1008700006F0D0F802460B98C00F01D02D2007E0FB
:100880002068810701D52B2002E0202101EAC00069
:10089000032A099001D0072A05DB0346414620467A
:1008A00000F09EF909E12078800601D5E06900E0BA
:1008B0000620B8F1650F814606D0B8F1660F18D052
:1008C000B8F1670F70D131E00020B9F1110F00903D
:1008D00001DB112301E009F101030AAA01A90CA817
:1008E000FFF7E4FEDDE90C70002609F101058346FF
:1008F00047E001204B4600904FF000470AAA01A9AB
:100900000CA8FFF7D3FEDDE90DB00C995D4600267B
:1009100010B909F101000D18B9EB050003D4C0F1BD
:10092000FF3609F10105A5EB09002BE0B9F1010F34
:1009300001DA4FF001090020B9F1110F009048468B
:1009400001DD112300E003460AAA01A90CA8FFF764
:10095000ADFEDDE90C704D46002683462078000789
:100960000AD4AB4500DA5D4601A8012D04DD41192A
:1009700011F8011C302907D04F4502DA17F1040F96
:1009800004DA012082460FE06D1EEEE7002F02DC44
:10099000ED1B3E4403E0781CA84200DD7D1CB81B23
:1009A00000F1010A4FF000472078000703D4AA4560
:1009B00001DB4FF0FF3A0021B7F1004F0DF1430882
:1009C0008DF8431022D002202B23002F01DA7F4222
:1009D0002D234FF00A0C011EA0F1010000DC47B1ED
:1009E00097FBFCF10CFB11720F46303208F8012D19
:1009F000F1E7A8F1010003702188090501D545211F
:100A000000E06521A0F1010800F8011C09980FA978
:100A1000A1EB0807FF1D00B10120411901EBEA70AD
:100A2000A1693844081A401EA0612078C00602D48B
:100A30002046FFF745FC099828B1D4E901219047E9
:100A4000206A401C20622078C00622D52046FFF78D
:100A500037FC1EE0002E04DBB34502DD01A8805DFB
:100A600000E03020D4E901219047206A401C206238
:100A7000761CAAF101005FEA000A0AD100F066F8CC
:100A8000C0680168405CD4E901219047206A401C9D
:100A90002062281EA5F10105DCDC07E0D4E9012174
:100AA00018F8010B9047206A401C2062381EA7F1FD
:100AB0000107F3DC2046FFF719FC022011B045E6E0
:100AC00001694A1C02610878704700B58FB0CDE912
:100AD00001310021059105497944CDE90310114602
:100AE0006846FFF7A3FC0FB000BD0000E5FFFFFF65
:100AF0000A6802F8010B0A60704710B5436913B128
:100B0000AFF3008001E0FFF702FC012010BD127876
:100B100000F124010A7000224A700122EDE71168F9
:100B20004FF0FF32E9E70000074B70B50D467B44FC
:100B3000FFF7CBFF0446284600F0FEF810B14FF057
:100B4000FF3070BD204670BD6363000000487047F1
:100B50009003002030B5B0F10A024FEA900E71F117
:100B600000034EEA817EB0EB0E0061EB91014FEA8B
:100B7000101E4EEA017E10EB0E0041EB11114FEA00
:100B8000102E4EEA016E10EB0E0041EB11214FEAE0
:100B9000104E4EEA014E10EB0E0041EB1141401891
:100BA00041F100014FEAD00040EA41704FEAD10123
:100BB00010EB80054FEA810444EA907444EB010491
:100BC0006D1944EB0404521BA3414FF0000348BFCE
:100BD0000A3200D530BD401C41F1000130BD00009B
:100BE0002DE9F0411F46044603260168072A01F457
:100BF000006004DB08B116A505E016A503E008B106
:100C000015A500E015A521F010002060A069C01E08
:100C1000A0610FB1401EA0612046FFF751FB4FB10C
:100C2000D4E9012138469047206A401C2062C01C4C
:100C3000206206E0206AFAE7D4E9012115F8010BE9
:100C40009047761EF8D22046FFF750FBBDE8F081B2
:100C50004E414E006E616E00494E4600696E660060
:100C60002DE9F047814616468AB0324878440DC8CF
:100C70008DE80D002F487844801C03AC0DC884E833
:100C80000D0041F69B303722014491FBF2F0A0F1B8
:100C9000800502FB10141B3C02D56442012000E0D9
:100CA0000020DFF890A080460027FA44AAF1BA0A93
:100CB0000DE0E00709D03246684607EB47010AEB32
:100CC000810100F032FB8DE8070064107F1C002CCE
:100CD000EFD1184F7F44A83F18E0E80714D007EB86
:100CE00004100DF1180A90E80E008AE80E00C068A2
:100CF000F04201D198190890324606A903A800F0E5
:100D000014FB03AB83E807006D10641C002DE4D1D5
:100D100032466946B8F1000F03A802D000F0F1FA9C
:100D200001E000F002FBC9E90001C9F808200AB09F
:100D3000BDE8F08758000100007B00F0800070479C
:100D400000487047700300207546FFF7F9FFAE4674
:100D500005006946534620F00700854618B020B5C7
:100D6000FFF77EFABDE820404FF000064FF0000785
:100D70004FF000084FF0000B21F00701AC46ACE843
:100D8000C009ACE8C009ACE8C009ACE8C0098D46B0
:100D900070470446AFF300802046FFF74EFA00008C
:100DA0004FF0013C50F8042B51F8043B9A4221D1FA
:100DB000A2EB0C03934313EACC1317D150F8042B86
:100DC00051F8043B9A4215D1A2EB0C03934313EA6A
:100DD000CC130BD150F8042B51F8043B9A4209D1A3
:100DE000A2EB0C03934313EACC13DBD04FF00000CB
:100DF000704700BFD01A01BAB1FA81F101F01801B1
:100E000022FA01F0CB40C1F12001DBB2C0B2C01A1E
:100E10002CFA01F3D11A914311EAC311E6D17047BC
:100E20005FEA400C08BF91F0000F4FEA8C234FEAB5
:100E3000C12243EA51514FEA1C5018BF00F5F0405F
:100E40004FEA300018BF41F000415FEA6C5C00F0EF
:100E50002980BCF1FF3F08BF40F080407047130C71
:100E600006BF12044FF0100C4FF0000C130E04BF1D
:100E700012020CF1080C130F04BF12010CF1040C48
:100E8000930F04BF92000CF1020CD30F04BF520069
:100E90000CF1010C11464FF00002A0F11F00A0EB75
:100EA0000C00704711F0004F08BF704731F000414F
:100EB0003FF4D5AF0B0C06BF09044FF0100C4FF0F8
:100EC000000C0B0E04BF09020CF1080C0B0F04BF41
:100ED00009010CF1040C8B0F04BF89000CF1020C0A
:100EE000CB0F04BF49000CF1010CCCF12003A0EBA7
:100EF0000C0022FA03F302FA0CF241EA030100F1BA
:100F00000100704720F07F4C80EA030023F07F4708
:100F1000ACEB070303F57C5300F0004003F1FF0343
:100F20002DE980494FEA154B09B44FEA144325EAED
:100F30000B4E24EA03480FF2042606EB1327490858
:100F40003E785FEA320203FB0667C7F5000707FB3E
:100F500006F64FEA54374FEAD64606F1020607FB7B
:100F6000066CCCF1005C4FEA1C472CEA074C07FBEF
:100F700006F40CFB06F504EB15464FEA961634BF53
:100F800000204FF000404FEAD13706FB07FC4FEA44
:100F90001C4C0CFB0BF7D21B03FB0CF761EB07019E
:100FA0000CFB0EF7B0EB074072EB17420CFB08F797
:100FB00034BFA2EB0742B2EB074261EB17414FEAA5
:100FC0000C444FEA910706FB07FC4FEA1C4C0CFB54
:100FD0000BF7B0EBC74072EB573203FB0CF734BF93
:100FE000A2EBC742B2EBC74261EB57310CFB0EF7E5
:100FF000B0EBC70072EB57720CFB08F734BFA2EBE3
:10100000C702B2EBC70261EB5771039F4FEA8161E0
:1010100041EA921104EBCC044FEAD1374FEA8262E5
:1010200006FB07FC42EA90124FEA80604FEA1C4C34
:101030000CFB0BF7D21B03FB0CF761EB07010CFB5E
:101040000EF7B0EB074072EB17420CFB08F734BF0A
:10105000A2EB0742B2EB074261EB17414FEA8C5516
:101060004FEA910704EB9C2406FB07FC4FEA1C4C5B
:101070000CFB0BF7B0EBC74072EB573203FB0CF7DE
:1010800034BFA2EBC742B2EBC74261EB57310CFB56
:101090000EF7B0EBC70072EB57720CFB08F734BFCA
:1010A000A2EBC702B2EBC70261EB577115EB4C25FF
:1010B0004FEA816141EA92114FEA82624FEAD137E9
:1010C00042EA901206FB07FC44F100044FEA8060FC
:1010D0004FEA1C4C0CFB0BF7D21B03FB0CF761EB2C
:1010E00007010CFB0EF7B0EB074072EB17420CFB4D
:1010F00008F734BFA2EB0742B2EB074261EB17419E
:1011000015EB1C154FEA813141EA92414FEA8232D8
:1011100042EA90424FEA80304FEA0C7644F10004F4
:1011200048EA03434EEA0B484FF0000EB2EB080CBE
:1011300071EB030724BF624639464EEB0E0E4FF0AB
:10114000000B0018524149414BEB0B0BB2EB080C62
:1011500071EB03077BF1000B24BF624639464EEB6F
:101160000E0E4FF0000B0018524149414BEB0B0B98
:10117000B2EB080C71EB03077BF1000B24BF624656
:1011800039464EEB0E0E51EA020718BF46F0010633
:1011900016EB0E7655F1000254F1000103D5BDE8BF
:1011A0008901BDE80088BDE88901B619BDE800489D
:1011B000524141EB0101A3F10103704780807F7E22
:1011C0007D7C7B7A797877767675747372717170BD
:1011D0006F6E6E6D6C6C6B6A6A696868676666656F
:1011E0006464636362616160605F5F5E5E5D5D5CFD
:1011F0005C5B5B5A5A59595858575756565555556E
:101200005454535352525251515050504F4F4F4ECD
:101210004E4D4D4D4C4C4C4B4B4B4A4A4A4949491B
:10122000484848474747474646464545454444445D
:10123000444343434342424242414141002B26D46E
:10124000770021D01CB54FEA370703B44FF01000E8
:101250004FF010014FF000000FBC0BF1010BBDE887
:101260001040BBF1010F08BF5FEA170722BF12F160
:10127000010211F101014FF0004143F1000300F0C0
:10128000004043EA00007047F9D35708DAE746EA1E
:10129000064613F1400F4FEA16461FDD13F1200FEB
:1012A000DFBF16430A46002120335B42C8D0C3F19A
:1012B000200746EA064602FA07F74FEA164646EACC
:1012C0000706C3F1200722FA03F201FA07F721FA11
:1012D00003F14FF0000342EA0702B1E746EA0206D3
:1012E00046EA06464FEA164646EA0106BCBF46EA0B
:1012F0000646360C4FF000034FF000024FF000019D
:101300009EE72DE9C048934630B491E8380007C8FD
:1013100031EA400C48BF34EA430C03D5FFF7F2FD35
:10132000FFF78CFFF0BCBDE800882DE9C04893466C
:1013300030B491E8380007C810F0804F08BF13F0B0
:10134000804F03D100F005F8FFF778FFF0BCBDE84F
:10135000008820F07F4780EA030023F07F4C07EBF2
:101360000C03A3F57C5300F00040A3F1FE0392F0C0
:10137000000F00F0B38095F0000F00F077802DE9AA
:1013800001494FEA11404FEA144621EA004800FBA8
:1013900006FC24EA064708FB06F607FB08F800FBF4
:1013A00007F718EB06484CEB164C4FEA124B18EBBC
:1013B00007484FEA15464CEB174022EA0B4E0BFB51
:1013C00006FC25EA06470EFB06F607FB0EFE0BFBA6
:1013D00007F71EEB064E4CEB164C4FF000061EEBCB
:1013E000074E4CEB174B18EB0B0840F1000018EBC5
:1013F0000E0B58EB000840F100008F1A4FF000016F
:101400003CBFC943661B14BFB5EB040C00213CBFB5
:10141000C943F61B4FEA17444EEA8E0E27EA0445ED
:101420004FEA1C4704FB07622CEA074C05FB07F751
:101430000CFB05F604FB0CFC16EB074642EB1742CF
:1014400016EB0C4642EB1C421BEB060658EB020265
:10145000414146EA9E0601D5BDE80189B6195241CF
:1014600041EB0101A3F10103BDE801894FEA1445F5
:101470004FEA114724EA054621EA074C05FB07F429
:1014800006FB07F70CFB06F105FB0CFC11EB074113
:1014900044EB17444FEA124711EB0C4144EB1C4458
:1014A00022EA074C05FB07F206FB07F70CFB06F6E2
:1014B00005FB0CFC16EB074642EB174216EB0C46FD
:1014C00042EB1C456A1854F1000148BF7047B61939
:1014D000524141EB0101A3F10103704795F0000F68
:1014E00037D04FEA11424FEA144721EA024624EA74
:1014F000074C02FB07F106FB07F70CFB06F402FBA7
:101500000CFC14EB074441EB17414FEA154714EB71
:101510000C4441EB1C4125EA074C02FB07F506FB96
:1015200007F70CFB06F602FB0CFC16EB074645EB37
:10153000174516EB0C4645EB1C42121951F1000100
:1015400048BF7047B619524141EB0101A3F10103B5
:1015500070474FEA14454FEA114724EA054621EA4D
:10156000074C05FB07F106FB07F70CFB06F24FF0F3
:10157000000605FB0CFC12EB074241EB174112EB96
:101580000C4251EB1C4148BF7047921841EB0101DE
:10159000A3F10103704700001CB50A2005F078FA9A
:1015A00008480068012809D1002000900346142251
:1015B000052101904FF4FC6005F03AF80120024942
:1015C00008601CBD00012142140401400448008849
:1015D000401C03490880042002490860704700004D
:1015E000120000201404014004480088401C0349F4
:1015F0000880102002490860704700001400002095
:101600001404014010B500F091F8022200210846B0
:1016100000F01EF801220221084600F019F801220C
:101620000421002000F014F80223062203211846AA
:1016300004F0FCFD022308220121184604F0F6FD07
:1016400002230A220021184604F0F0FD10BD00001C
:1016500070B504460B46CE1701EB9676C6F38700AD
:10166000CE1701EB9676B610A1EB8606B606350EC0
:101670001C4B9B6943F001031A4EB3614FEAB6332A
:1016800053F820300F26AE40B343174E46F82030B3
:10169000334653F8203004FA05F61E43124B43F844
:1016A0002060124B1B6801268E4033430F4E33607F
:1016B00002F0010343B10D4B0C331B6801268E4031
:1016C00033430A4E0C36336002F0020343B1074B3A
:1016D00008331E6801238B401E43044B08331E60F1
:1016E00070BD0000001002400800014000040140ED
:1016F0000146CA1701EB92729210A1EB820292B9D5
:10170000642091FBF0F200FB121050B94FF4C87046
:1017100091FBF0F200FB121008B901207047002085
:10172000FCE70120FAE70020F8E70000174880698D
:1017300040F00400154988610846806940F01000B7
:1017400088611348006820F00F10114908600846AE
:10175000006840F0081008600D480C30006840F048
:1017600010000B490C3108600A48006820F47060D2
:10177000084908600846006840F4006008600846B0
:10178000C06840F00400C8607047000000100240CC
:10179000000801400010014030B5014601F01F046F
:1017A000C1F34513CA0AE50205EB43151544A8B277
:1017B00030BD000070B504460026174805884088F3
:1017C00045431548808846F60401884216D11248E0
:1017D0008079012812D100200F4988712A20488180
:1017E0002B2088810021084604F04AF901200A498B
:1017F00088712B2048812A20888103E00021084637
:1018000004F03EF904F094FC002602E00348048052
:10181000761CAE42FAD370BD740200200008006C42
:1018200010B50446002C66D16C498871F020088000
:101830004FF4A07048800846808849F241318842C0
:101840000BD06648808846F60401884205D063487C
:10185000808845F2103188421AD12C205F490881D6
:101860002A2048812B2088810846808846F604017A
:10187000884205D05948808845F21031884206D107
:101880004FF4A070554908804FF4F0704880A1E0F3
:101890005248808845F21051884210D14FF43050A0
:1018A0004E4908814FF4285048814FF42C508881CC
:1018B0004FF4F07008804FF4487048808AE0474841
:1018C000808841F6631188420DD12C20434908815C
:1018D0002B2048812A2088814FF4F07008804FF433
:1018E0004870488076E022203C49088120204881C9
:1018F000212088816EE00120384988714FF4A07062
:101900000880F02048800846808849F241318842AA
:1019100005D03248808845F21031884207D12C200A
:101920002E4908812A2048812B2088813FE02B48BE
:10193000808846F60401884207D12C202749088177
:101940002B2048812A20888131E02448808845F274
:101950001051884210D14FF43050204908814FF483
:10196000285048814FF42C5088814FF448700880EB
:101970004FF4F07048801AE01848808841F66311EF
:1019800088420DD12C20154908812A2048812B201E
:1019900088814FF4487008804FF4F070488006E06A
:1019A00022200E49088121204881202088810B486F
:1019B000808846F60401884205D00848808845F2B0
:1019C0001031884206D14FF4F070044908804FF47A
:1019D000A0704880002003F0DDFE10BD74020020DE
:1019E0002DE9FF4F84B081468A4600200390029083
:1019F0000698A0EB09050798A0EB0A06CDF804901D
:101A0000CDF800A0002D01DD012705E00DB900276C
:101A100002E04FF0FF376D42002E02DD4FF001086B
:101A200006E016B94FF0000802E04FF0FF387642AA
:101A3000B54201DD2C4600E034464FF0000B21E0BA
:101A4000009A91B2019A90B200F022F803982844CB
:101A500003900298304402900398A04205DD039859
:101A6000001B03900198384401900298A04205DDC4
:101A70000298001B02900098404400900BF1010076
:101A80001FFA80FB601C8345DADD08B0BDE8F08FEB
:101A900030B504460D462946204603F0F1FF04F018
:101AA00047FB024800880249088030BD0E00002034
:101AB0000008006CF0B504460D4616461F462B463E
:101AC000324629462046FFF78BFF3B4622462946F1
:101AD0002046FFF785FF3B46324639462046FFF752
:101AE0007FFF3B46324629463046FFF779FFF0BD7F
:101AF0002DE9F04306460F46904600244546032054
:101B0000A0EB48093CE07A1B91B2321990B2FFF782
:101B1000BFFF3A1B91B2721990B2FFF7B9FF3A19A1
:101B200091B2721990B2FFF7B3FF7A1991B23219DC
:101B300090B2FFF7ADFF7A1991B2321B90B2FFF766
:101B4000A7FF3A1991B2721B90B2FFF7A1FF7A1B5F
:101B500091B2321B90B2FFF79BFF3A1B91B2721BFE
:101B600090B2FFF795FF641CB9F1000F03DAA000F3
:101B7000801D814404E0601B80000A3081446D1E9A
:101B8000AC42C0DDBDE8F08330B503460C461546D7
:101B90005A48808849F24131884205D057488088A8
:101BA00045F21031884214D15449488904F0BAFAF8
:101BB000181204F0B1FAD8B204F0AEFA4F4988898D
:101BC00004F0B0FA201204F0A7FAE0B204F0A4FA8C
:101BD0008CE04A48808845F21051884220D147491C
:101BE000488904F09FFA181204F096FA434949898B
:101BF000491C88B204F096FAD8B204F08DFA3F4935
:101C0000888904F08FFA201204F086FA3B4989890A
:101C1000491C88B204F086FAE0B204F07DFA65E06F
:101C20003648808841F66311884228D1334880794C
:101C300020B932480088401EC01A83B22F49488913
:101C400004F070FA181204F067FAD8B204F064FADB
:101C5000181204F061FAD8B204F05EFA27498889B4
:101C600004F060FA201204F057FAE0B204F054FADB
:101C7000201204F051FAE0B204F04EFA36E01F48A8
:101C8000808846F6040188421DD11C4880790128CD
:101C900004D11A480088401EC01A83B217494889E7
:101CA00004F040FA181204F037FAD8B204F034FA0B
:101CB0001249888904F036FA201204F02DFAE0B2B5
:101CC00004F02AFA12E00D488079012804D10B486B
:101CD0000088401EC01A83B208494889194604F09A
:101CE00031FA06498889214604F02CFA0348008914
:101CF00003490880881C058030BD00007402002064
:101D0000FE07006C2DE9FC4F05460E461746984627
:101D1000DDF82C90002001902748808846F60401C9
:101D2000884229D124488079012825D1AB463546FF
:101D300021480088C01B401E86B247461E480088C6
:101D4000A0EB0B00401E1FFA80F800201A49887192
:101D50002A2048812B20888143463A46314628462E
:101D6000CDF80090FFF7CEFF0120134988712B209A
:101D700048812A2088811CE0781B401C80B2019099
:101D8000344614E02146284603F07AFE04F0D0F9E8
:101D90004FF0000A06E00948A0F800900AF101009F
:101DA0001FFA80FA01988245F5DB601C84B2444535
:101DB000E8DDBDE8FC8F0000740200200008006C24
:101DC00010B5FD48406940F48070FB494861084601
:101DD000806940F0080088610846806940F0200072
:101DE00088610846806940F0400088610846806943
:101DF00040F480708861F148006820F00F00EF49DE
:101E000008600846006840F003000860EC4800687D
:101E1000EC490840EA49086008460068EA49084376
:101E2000E7490860081F006800F0FF20091F0860EC
:101E30000846006840F0BB100860E44800680020D5
:101E4000E24908600846006840F0BB300860081F9F
:101E5000006820F07040091F08600846006840F0E4
:101E600030400860DA48406820F47020D849486063
:101E70000846406840F4302048600846006820F07A
:101E80000F0008600846006840F00B000860002062
:101E90004FF020418861C861CE4908604FF0204072
:101EA000806940F480504FF0204188610846806985
:101EB00040F4804088610846806940F010008861E5
:101EC0000846C069C8610846C06940F00100C861A1
:101ED0000846C06940F47060C861BE480068C1F837
:101EE0001C01BC480068C1F81C010846D0F81C0160
:101EF00040F44070C1F81C010846806940F00100C0
:101F00008861322004F0C4FD002003F00DFCB249CA
:101F1000888008468088FF280ADB084680884FF6BC
:101F2000FF71884204D0AC488088B0F5134F7CD153
:101F3000D32004F0F7F803F037FBA749888003F0BB
:101F400033FBA549888003F02FFBA349888008460E
:101F500080884FF6FF7101EA00209F49888003F0D6
:101F600023FB9D49898808439B49888008468088CF
:101F700049F24131884258D0BF2004F0D3F803F031
:101F800013FB9549888003F00FFB9349888003F089
:101F90000BFB9149888003F007FB8F498880084636
:101FA00080884FF6FF7101EA00208B49888003F09A
:101FB000FBFA8949898808438749888008468088D0
:101FC00046F6040188427AD0D42004F0ABF803F03E
:101FD000EBFA8149888003F0E7FA7F49888003F0B3
:101FE000E3FA7D498880084680884FF6FF7101EA50
:101FF00000207949888003F0D7FA77498988084317
:10200000754988800846808845F21031884256D04C
:102010004FF45A4004F086F803F0C6FA6E498880FF
:102020004FF45B4004F07EF800E048E003F0BCFAB7
:1020300069498880084680884FF6FF7101EA0020D0
:10204000654988804FF45C4004F06CF803F0ACFA0A
:102050006149898808436049888008468088B0F5CE
:10206000004F02D145F2105088805B48808845F2CD
:102070001051884223D0A12004F054F803F094FAC0
:102080005549888003F090FA534988800846808833
:102090004FF6FF7101EA00204F49888003F084FA6F
:1020A0004D49898808434C4988800846808845F214
:1020B0006171884203D141F66310474988804648E0
:1020C000818846A0FEF7DCF84348808849F2413118
:1020D000884270D1CF2004F025F8002004F01CF8CD
:1020E000C12004F019F8302004F016F8ED2004F0B7
:1020F00019F8642004F010F8032004F00DF8122001
:1021000004F00AF8812004F007F8E82004F00AF847
:10211000852004F001F8102003F0FEFF7A2003F080
:10212000FBFFCB2003F0FEFF392003F0F5FF2C204E
:1021300003F0F2FF002003F0EFFF342003F0ECFF88
:10214000022003F0E9FFF72003F0ECFF202003F06A
:10215000E3FFEA2003F0E6FF002003F0DDFF0020AC
:1021600003F0DAFFC02003F0DDFF1B2003F0D4FFF3
:10217000C12003F0D7FF012003F0CEFFC52003F0FC
:10218000D1FF302003F0C8FF302003F0C5FFC72087
:1021900003F0C8FFB72003F0BFFF362003F0C2FFF3
:1021A000482003F0B9FF3A2003F0BCFF552003F0AC
:1021B000B3FFB1201AE0BFE000100240000C014064
:1021C0000414014000F0FF00BB0B00BB04180140E9
:1021D000002001401C0100A074020020204C434458
:1021E0002049443A25780D0A0000000003F09AFFC8
:1021F000002003F091FF1A2003F08EFFB62003F0B9
:1022000091FF0A2003F088FFA22003F085FFF2204F
:1022100003F088FF002003F07FFF262003F082FFF9
:10222000012003F079FFE02003F07CFF0F2003F092
:1022300073FF2A2003F070FF282003F06DFF0820B1
:1022400003F06AFF0E2003F067FF082003F064FF2D
:10225000542003F061FFA92003F05EFF432003F048
:102260005BFF0A2003F058FF0F2003F055FF00200A
:1022700003F052FF002003F04FFF002003F04CFF5B
:10228000002003F049FFE12003F04CFF002003F0A1
:1022900043FF152003F040FF172003F03DFF072008
:1022A00003F03AFF112003F037FF062003F034FF5C
:1022B0002B2003F031FF562003F02EFF3C2003F0CB
:1022C0002BFF052003F028FF102003F025FF0F202F
:1022D00003F022FF3F2003F01FFF3F2003F01CFF0D
:1022E0000F2003F019FF2B2003F01CFF002003F048
:1022F00013FF002003F010FF012003F00DFF3F202B
:1023000003F00AFF2A2003F00DFF002003F004FF72
:10231000002003F001FF002003F0FEFEEF2003F099
:10232000FBFE112003F0FEFE782004F0B1FB292013
:1023300003F0F8FE03F01DB9FE48808846F604015C
:1023400088427CD1112003F0EDFE142004F0A0FBA4
:10235000D02003F0E7FE072003F0DEFE422003F06A
:10236000DBFE1D2003F0D8FED12003F0DBFE0020B1
:1023700003F0D2FE1A2003F0CFFE092003F0CCFEBA
:10238000D22003F0CFFE012003F0C6FE222003F08E
:10239000C3FEC02003F0C6FE102003F0BDFE3B20AC
:1023A00003F0BAFE002003F0B7FE022003F0B4FEF3
:1023B000112003F0B1FEC52003F0B4FE032003F0AA
:1023C000ABFEC82003F0AEFE002003F0A5FE2520E2
:1023D00003F0A2FE212003F09FFE052003F09CFEE7
:1023E000002003F099FE0A2003F096FE652003F01A
:1023F00093FE252003F090FE772003F08DFE502001
:1024000003F08AFE0F2003F087FE002003F084FE15
:10241000F82003F087FE012003F07EFEFE2003F08B
:1024200081FE002003F078FE022003F075FE2020DC
:1024300003F078FE362003F075FE082000E02CE063
:1024400003F06AFE3A2003F06DFE552003F064FEAF
:102450002B2003F067FE002003F05EFE002003F057
:102460005BFE012003F058FE3F2003F055FE2A20BA
:1024700003F058FE002003F04FFE002003F04CFE56
:10248000012003F049FEDF2003F046FE782004F02F
:10249000FFFA292003F046FE4CE7A648808845F263
:1024A0001031884240F07C87ED2003F03BFE012094
:1024B00003F032FEFE2003F02FFEEE2003F032FE8A
:1024C000DE2003F029FE212003F026FEF12003F098
:1024D00029FE012003F020FEDF2003F023FE102060
:1024E00003F01AFEC42003F01DFE8F2003F014FE3B
:1024F000C62003F017FE002003F00EFEE22003F0DA
:102500000BFEE22003F008FEE22003F005FEBF20F0
:1025100003F008FEAA2003F0FFFDB02003F002FE46
:102520000D2003F0F9FD002003F0F6FD0D2003F06F
:10253000F3FD002003F0F0FD112003F0EDFD00207D
:1025400003F0EAFD192003F0E7FD002003F0E4FDAD
:10255000212003F0E1FD002003F0DEFD2D2003F03B
:10256000DBFD002003F0D8FD3D2003F0D5FD002069
:1025700003F0D2FD5D2003F0CFFD002003F0CCFD81
:102580005D2003F0C9FD002003F0C6FDB12003F07B
:10259000C9FD802003F0C0FD002003F0BDFD8B20AD
:1025A00003F0BAFD002003F0B7FD962003F0B4FD60
:1025B000002003F0B1FDB22003F0B4FD002003F0D1
:1025C000ABFD002003F0A8FD022003F0A5FD0020D4
:1025D00003F0A2FD032003F09FFD002003F09CFD0B
:1025E000B32003F09FFD002003F096FD002003F0D0
:1025F00093FD002003F090FD002003F08DFD0020EE
:1026000003F08AFD002003F087FD002003F084FD25
:10261000002003F081FD002003F07EFD002003F088
:102620007BFD002003F078FD002003F075FD002005
:1026300003F072FD002003F06FFD002003F06CFD3D
:10264000002003F069FD002003F066FD002003F088
:1026500063FD002003F060FD002003F05DFD00201D
:1026600003F05AFD002003F057FD002003F054FD55
:10267000002003F051FDB42003F054FD8B2003F043
:102680004BFD002003F048FD962003F045FD00209F
:1026900003F042FDA12003F03FFD002003F03CFDCC
:1026A000B52003F03FFD022003F036FD002003F0CB
:1026B00033FD032003F030FD002003F02DFD042046
:1026C00003F02AFD002003F027FDB62003F02AFDC9
:1026D000002003F021FD002003F01EFDB72003F0D1
:1026E00021FD002003F018FD002003F015FD3F2020
:1026F00003F012FD002003F00FFD5E2003F00CFD3F
:10270000002003F009FD642003F006FD002003F023
:1027100003FD8C2003F000FD002003F0FDFCAC2045
:1027200003F0FAFC002003F0F7FCDC2003F0F4FCDB
:10273000002001E07402002003F0EEFC702003F0A2
:10274000EBFC002003F0E8FC902003F0E5FC002007
:1027500003F0E2FCEB2003F0DFFC002003F0DCFCE4
:10276000DC2003F0D9FC002003F0D6FCB82003F0F5
:10277000D9FC002003F0D0FC002003F0CDFC0020A9
:1027800003F0CAFC002003F0C7FC002003F0C4FCE7
:10279000002003F0C1FC002003F0BEFC002003F089
:1027A000BBFCBA2003F0BEFC242003F0B5FC0020E3
:1027B00003F0B2FC002003F0AFFC002003F0ACFCFF
:1027C000C12003F0AFFC202003F0A6FC002003F0A2
:1027D000A3FC542003F0A0FC002003F09DFCFF208C
:1027E00003F09AFC002003F097FCC22003F09AFC4F
:1027F0000A2003F091FC002003F08EFC042003F07B
:102800008BFC002003F088FCC32003F08BFC3C20F1
:1028100003F082FC002003F07FFC3A2003F07CFCF4
:10282000002003F079FC392003F076FC002003F04F
:1028300073FC372003F070FC002003F06DFC3C209B
:1028400003F06AFC002003F067FC362003F064FC10
:10285000002003F061FC322003F05EFC002003F056
:102860005BFC2F2003F058FC002003F055FC2C20CB
:1028700003F052FC002003F04FFC292003F04CFC35
:10288000002003F049FC262003F046FC002003F062
:1028900043FC242003F040FC002003F03DFC2420F6
:1028A00003F03AFC002003F037FC232003F034FC53
:1028B000002003F031FC3C2003F02EFC002003F04C
:1028C0002BFC362003F028FC002003F025FC3220EE
:1028D00003F022FC002003F01FFC2F2003F01CFC5F
:1028E000002003F019FC2C2003F016FC002003F05C
:1028F00013FC292003F010FC002003F00DFC26201F
:1029000003F00AFC002003F007FC242003F004FC81
:10291000002003F001FC242003F0FEFB002003F064
:10292000FBFB232003F0F8FB002003F0F5FBC420A1
:1029300003F0F8FB622003F0EFFB002003F0ECFB58
:10294000052003F0E9FB002003F0E6FB842003F000
:10295000E3FB002003F0E0FBF02003F0DDFB0020B0
:1029600003F0DAFB182003F0D7FB002003F0D4FBC0
:10297000A42003F0D1FB002003F0CEFB182003F0CD
:10298000CBFB002003F0C8FB502003F0C5FB002068
:1029900003F0C2FB0C2003F0BFFB002003F0BCFBE4
:1029A000172003F0B9FB002003F0B6FB952003F0DD
:1029B000B3FB002003F0B0FBF32003F0ADFB0020DD
:1029C00003F0AAFBE62003F0A7FB002003F0A4FB22
:1029D000C52003F0A7FB322003F09EFB002003F08C
:1029E0009BFB442003F098FB002003F095FB65203F
:1029F00003F092FB002003F08FFB762003F08CFBAA
:102A0000002003F089FB882003F086FB002003F000
:102A100083FBC62003F086FB202003F07DFB002013
:102A200003F07AFB172003F077FB002003F074FB20
:102A3000012003F071FB002003F06EFBC72003F0C0
:102A400071FB002003F068FB002003F065FB002011
:102A500003F062FB002003F05FFBC82003F062FB81
:102A6000002003F059FB002003F056FB002003F088
:102A700053FB002003F050FBC92003F053FB002060
:102A800003F04AFB002003F047FB002003F044FB67
:102A9000002003F041FB002003F03EFB002003F088
:102AA0003BFB002003F038FB002003F035FB002047
:102AB00003F032FB002003F02FFB002003F02CFB7F
:102AC000002003F029FB002003F026FB002003F088
:102AD00023FB002003F020FB002003F01DFBE0207F
:102AE00003F020FB162003F017FB002003F014FB7B
:102AF0001C2003F011FB002003F00EFB212003F04B
:102B00000BFB002003F008FB362003F005FB002040
:102B100003F002FB462003F0FFFA002003F0FCFA6A
:102B2000522003F0F9FA002003F0F6FA642003F0D3
:102B3000F3FA002003F0F0FA7A2003F0EDFA002017
:102B400003F0EAFA8B2003F0E7FA002003F0E4FA3E
:102B5000992003F0E1FA002003F0DEFAA82003F048
:102B6000DBFA002003F0D8FAB92003F0D5FA0020F0
:102B700003F0D2FAC42003F0CFFA002003F0CCFA1D
:102B8000CA2003F0C9FA002003F0C6FAD22003F0ED
:102B9000C3FA002003F0C0FAD92003F0BDFA0020E8
:102BA00003F0BAFAE02003F0B7FA002003F0B4FA19
:102BB000F32003F0B1FA002003F0AEFAE12003F0B5
:102BC000B1FA162003F0A8FA002003F0A5FA1C20A1
:102BD00003F0A2FA002003F09FFA222003F09CFAEF
:102BE000002003F099FA362003F096FA002003F053
:102BF00093FA452003F090FA002003F08DFA52205A
:102C000003F08AFA002003F087FA642003F084FAC4
:102C1000002003F081FA7A2003F07EFA002003F00E
:102C20007BFA8B2003F078FA002003F075FA9920E4
:102C300003F072FA002003F06FFAA82003F06CFA98
:102C4000002003F069FAB92003F066FA002003F0CF
:102C500063FAC42003F060FA002003F05DFACA2092
:102C600003F05AFA002003F057FAD22003F054FA86
:102C7000002003F051FAD82003F04EFA002003F0B0
:102C80004BFAE02003F048FA002003F045FAF32065
:102C900003F042FA002003F03FFAE22003F042FA88
:102CA000052003F039FA002003F036FA0B2003F078
:102CB00033FA002003F030FA1B2003F02DFA002035
:102CC00003F02AFA342003F027FA002003F024FA54
:102CD000442003F021FA002003F01EFA4F2003F0F5
:102CE0001BFA002003F018FA612003F015FA002007
:102CF00003F012FA792003F00FFA002003F00CFA27
:102D0000882003F009FA002003F006FA972003F068
:102D100003FA002003F000FAA62003F0FDF90020DA
:102D200003F0FAF9B72003F0F7F9002003F0F4F903
:102D3000C22003F0F1F9002003F0EEF9C72003F000
:102D4000EBF9002003F0E8F9D12003F0E5F90020C9
:102D500003F0E2F9D62003F0DFF9002003F0DCF9FC
:102D6000DD2003F0D9F9002003F0D6F9F32003F0B9
:102D7000D3F9002003F0D0F9E32003F0D3F90520C4
:102D800003F0CAF9002003F0C7F90A2003F0C4F9E0
:102D9000002003F0C1F91C2003F0BEF9002003F06D
:102DA000BBF9332003F0B8F9002003F0B5F9442053
:102DB00003F0B2F9002003F0AFF9502003F0ACF9B2
:102DC000002003F0A9F9622003F0A6F9002003F027
:102DD000A3F9782003F0A0F9002003F09DF98820E2
:102DE00003F09AF9002003F097F9972003F094F983
:102DF000002003F091F9A62003F08EF9002003F0E3
:102E00008BF9B72003F088F9002003F085F9C22080
:102E100003F082F9002003F07FF9C72003F07CF96A
:102E2000002003F079F9D12003F076F9002003F0B7
:102E300073F9D52003F070F9002003F06DF9DD205F
:102E400003F06AF9002003F067F9F32003F064F956
:102E5000002003F061F9E42003F064F9012003F09D
:102E60005BF9002003F058F9012003F055F9002028
:102E700003F052F9022003F04FF9002003F04CF95F
:102E80002A2003F049F9002003F046F93C2003F022
:102E900043F9002003F040F94B2003F03DF90020F6
:102EA00003F03AF95D2003F037F9002003F034F91C
:102EB000742003F031F9002003F02EF9842003F090
:102EC0002BF9002003F028F9932003F025F90020C6
:102ED00003F022F9A22003F01FF9002003F01CF9EF
:102EE000B32003F019F9002003F016F9BE2003F017
:102EF00013F9002003F010F9C42003F00DF90020AD
:102F000003F00AF9CD2003F007F9002003F004F9DB
:102F1000D32003F001F9002003F0FEF8DD2003F0D8
:102F2000FBF8002003F0F8F8F32003F0F5F8002098
:102F300003F0F2F8E52003F0F5F8002003F0ECF8D8
:102F4000002003F0E9F8002003F0E6F8002003F089
:102F5000E3F8022003F0E0F8002003F0DDF8292078
:102F600003F0DAF8002003F0D7F83C2003F0D4F89F
:102F7000002003F0D1F84B2003F0CEF8002003F03E
:102F8000CBF85D2003F0C8F8002003F0C5F87420EA
:102F900003F0C2F8002003F0BFF8842003F0BCF86F
:102FA000002003F0B9F8932003F0B6F8002003F0F6
:102FB000B3F8A22003F0B0F8002003F0ADF8B3207E
:102FC00003F0AAF8002003F0A7F8BE2003F0A4F84D
:102FD000002003F0A1F8C42003F09EF8002003F0C5
:102FE0009BF8CD2003F098F8002003F095F8D3204B
:102FF00003F092F8002003F08FF8DC2003F08CF847
:10300000002003F089F8F32003F086F8002003F095
:1030100083F8E62003F086F8112003F07DF8002005
:1030200003F07AF8342003F077F8002003F074F806
:10303000562003F071F8002003F06EF8762003F0BC
:103040006BF8002003F068F8772003F065F80020A3
:1030500003F062F8662003F05FF8002003F05CF8EC
:10306000882003F059F8002003F056F8992003F067
:1030700053F8002003F050F8BB2003F04DF8002077
:1030800003F04AF8992003F047F8002003F044F8D1
:10309000662003F041F8002003F03EF8552003F0CD
:1030A0003BF8002003F038F8552003F035F80020F5
:1030B00003F032F8452003F02FF8002003F02CF83D
:1030C000432003F029F8002003F026F8442003F001
:1030D00023F8002003F020F8E72003F023F8322043
:1030E00003F01AF8002003F017F8552003F014F845
:1030F000002003F011F8762003F00EF8002003F012
:103100000BF8662003F008F8002003F005F86720AC
:1031100003F002F8002002F0FFFF672002F0FCFF3E
:10312000002002F0F9FF872002F0F6FF002002F0F5
:10313000F3FF992002F0F0FF002002F0EDFFBB202A
:1031400002F0EAFF002002F0E7FF992002F0E4FF1E
:10315000002002F0E1FF772002F0DEFF002002F005
:10316000DBFF442002F0D8FF002002F0D5FF5620FC
:1031700002F0D2FF002002F0CFFF232002F0CCFFAC
:10318000002002F0C9FF332002F0C6FF002002F049
:10319000C3FF452002F0C0FF002002F0BDFFE82081
:1031A00002F0C0FF002002F0B7FF002002F0B4FFE1
:1031B000992002F0B1FF002002F0AEFF872002F05C
:1031C000ABFF002002F0A8FF882002F0A5FF00203E
:1031D00002F0A2FF772002F09FFF002002F09CFF88
:1031E000662002F099FF002002F096FF882002F08E
:1031F00093FF002002F090FFAA2002F08DFF002034
:1032000002F08AFFBB2002F087FF002002F084FF5B
:10321000992002F081FF002002F07EFF662002F07C
:103220007BFF002002F078FF552002F075FF0020A0
:1032300002F072FF552002F06FFF002002F06CFFD9
:10324000442002F069FF002002F066FF442002F0F3
:1032500063FF002002F060FF552002F05DFF0020B8
:1032600002F05AFFE92002F05DFFAA2002F054FFAD
:10327000002002F051FF002002F04EFF002002F07B
:103280004BFF002002F04EFFAA2002F045FFCF20A6
:1032900002F048FF002002F03FFF002002F03CFF58
:1032A000002002F039FF002002F036FF002002F07B
:1032B00033FF002002F030FF002002F02DFF00203D
:1032C00002F02AFF002002F027FF002002F024FF76
:1032D000002002F021FF002002F01EFF002002F07B
:1032E0001BFF002002F018FF002002F015FF002055
:1032F00002F012FF002002F00FFFF02002F012FF98
:10330000002002F009FF502002F006FF002002F02A
:1033100003FF002002F000FF002002F0FDFEF3207A
:1033200002F000FF002002F0F7FEF92002F0FAFEA2
:10333000062002F0F1FE102002F0EEFE292002F03D
:10334000EBFE002002F0E8FE3A2002F0EBFE5520F2
:1033500002F0E2FE112002F0E5FE642003F098FB8B
:10336000292002F0DFFE352002F0DCFE002002F012
:10337000D3FE512002F0D6FEFF2002F0CDFE5320F6
:1033800002F0D0FE2C2002F0C7FE552002F0CAFE4B
:10339000822002F0C1FE2C2002F0C4FE02F0E9B847
:1033A000FE48808845F2105188427DD155214FF466
:1033B000704002F0C7FEAA214FF2010002F0C2FEE7
:1033C00052214FF2020002F0BDFE08214FF203002D
:1033D00002F0B8FE01214FF2040002F0B3FE0D210D
:1033E0004FF4304002F0AEFE0D214BF2010002F02E
:1033F000A9FE0D214BF2020002F0A4FE34214FF48D
:10340000364002F09FFE34214BF2016002F09AFE3A
:1034100034214BF2026002F095FE0D214FF4314051
:1034200002F090FE0D214BF2011002F08BFE0D21F7
:103430004BF2021002F086FE34214FF4374002F0C6
:1034400081FE34214BF2017002F07CFE34214BF2FC
:10345000027002F077FE00214FF4324002F072FE5B
:1034600000214BF2012002F06DFE00214BF2022000
:1034700002F068FE24214FF4384002F063FE24215C
:103480004BF6010002F05EFE24214BF6020002F032
:1034900059FE01214FF43F4002F054FE0F214FF43A
:1034A000334002F04FFE00E0FDE30F214BF201300C
:1034B00002F048FE0F214BF2023002F043FE3421AD
:1034C0004FF4394002F03EFE34214BF6011002F079
:1034D00039FE34214BF6021002F034FE08214FF47D
:1034E000354002F02FFE08214BF2015002F02AFE77
:1034F00008214BF2025002F025FE03214FF4424016
:1035000002F020FE24214FF43A4002F01BFE242159
:103510004BF6012002F016FE24214BF6022002F0A9
:1035200011FE00214FF43C4002F00CFE78214BF6D6
:10353000014002F007FE00214BF6024002F002FEBD
:1035400000214FF43D4002F0FDFD78214BF6015083
:1035500002F0F8FD00214BF6025002F0F3FD0021CD
:103560004FF43E4002F0EEFD64214BF6016002F0A4
:10357000E9FD00214FF4514002F0E4FD33214DF20A
:10358000011002F0DFFD00214DF2021002F0DAFD21
:1035900034214DF2031002F0D5FD00214DF204104C
:1035A00002F0D0FD3A214DF2051002F0CBFD0021D2
:1035B0004DF2061002F0C6FD4A214DF2071002F04E
:1035C000C1FD00214DF2081002F0BCFD5C214DF25E
:1035D000091002F0B7FD00214DF20A1002F0B2FD11
:1035E00081214DF20B1002F0ADFD00214DF20C10C7
:1035F00002F0A8FDA6214DF20D1002F0A3FD00215E
:103600004DF20E1002F09EFDE5214DF20F1002F07A
:1036100099FD01214DF2101002F094FD13214DF29D
:10362000111002F08FFD01214DF2121002F08AFDFF
:1036300054214DF2131002F085FD01214DF21410BA
:1036400002F080FD82214DF2151002F07BFD012178
:103650004DF2161002F076FDCA214DF2171002F05D
:1036600071FD02214DF2181002F06CFD00214DF2A7
:10367000191002F067FD02214DF21A1002F062FDEE
:1036800001214DF21B1002F05DFD02214DF21C10D4
:1036900002F058FD34214DF21D1002F053FD0221BD
:1036A0004DF21E1002F04EFD67214DF21F1002F088
:1036B00049FD02214DF2201002F044FD84214DF21B
:1036C000211002F03FFD02214DF2221002F03AFDDE
:1036D000A4214DF2231002F035FD02214DF22410F9
:1036E00002F030FDB7214DF2251002F02BFD022132
:1036F0004DF2261002F026FDCF214DF2271002F0E8
:1037000021FD02214DF2281002F01CFDDE214DF2B8
:10371000291002F017FD02214DF22A1002F012FDCD
:10372000F2214DF22B1002F00DFD02214DF22C1072
:1037300002F008FDFE214DF22D1002F003FD0321E1
:103740004DF22E1002F0FEFC10214DF22F1002F06F
:10375000F9FC03214DF2301002F0F4FC33214DF25C
:10376000311002F0EFFC03214DF2321002F0EAFCBE
:103770006D214DF2331002F0E5FC00214FF4524070
:1037800002F0E0FC33214DF2012002F0DBFC0021CD
:103790004DF2022002F0D6FC342101E07402002038
:1037A0004DF2032002F0CEFC00214DF2042002F085
:1037B000C9FC3A214DF2052002F0C4FC00214DF273
:1037C000062002F0BFFC4A214DF2072002F0BAFCAD
:1037D00000214DF2082002F0B5FC5C214DF20920D9
:1037E00002F0B0FC00214DF20A2002F0ABFC812176
:1037F0004DF20B2002F0A6FC00214DF20C2002F04D
:10380000A1FCA6214DF20D2002F09CFC00214DF2FE
:103810000E2002F097FCE5214DF20F2002F092FC01
:1038200001214DF2102002F08DFC13214DF21120E8
:1038300002F088FC01214DF2122002F083FC542199
:103840004DF2132002F07EFC01214DF2142002F013
:1038500079FC82214DF2152002F074FC01214DF219
:10386000162002F06FFCCA214DF2172002F06AFC0C
:1038700002214DF2182002F065FC00214DF21920C2
:1038800002F060FC02214DF21A2002F05BFC0121E3
:103890004DF21B2002F056FC02214DF21C2002F0DA
:1038A00051FC34214DF21D2002F04CFC02214DF25E
:1038B0001E2002F047FC67214DF21F2002F042FC5F
:1038C00002214DF2202002F03DFC84214DF2212006
:1038D00002F038FC02214DF2222002F033FCA42138
:1038E0004DF2232002F02EFC02214DF2242002F0A2
:1038F00029FCB7214DF2252002F024FC02214DF2D3
:10390000262002F01FFCCF214DF2272002F01AFCE6
:1039100002214DF2282002F015FCDE214DF2292073
:1039200002F010FC02214DF22A2002F00BFCF221E1
:103930004DF22B2002F006FC02214DF22C2002F069
:1039400001FCFE214DF22D2002F0FCFB03214DF283
:103950002E2002F0F7FB10214DF22F2002F0F2FB97
:1039600003214DF2302002F0EDFB33214DF23120E6
:1039700002F0E8FB03214DF2322002F0E3FB6D215F
:103980004DF2332002F0DEFB00214FF4534002F0F1
:10399000D9FB33214DF2013002F0D4FB00214DF26E
:1039A000023002F0CFFB34214DF2033002F0CAFBAB
:1039B00000214DF2043002F0C5FB3A214DF20530F2
:1039C00002F0C0FB00214DF2063002F0BBFB4A21A1
:1039D0004DF2073002F0B6FB00214DF2083002F044
:1039E000B1FB5C214DF2093002F0ACFB00214DF23D
:1039F0000A3002F0A7FB81214DF20B3002F0A2FB4E
:103A000000214DF20C3002F09DFBA6214DF20D304D
:103A100002F098FB00214DF20E3002F093FBE521FD
:103A20004DF20F3002F08EFB01214DF2103002F00A
:103A300089FB13214DF2113002F084FB01214DF27C
:103A4000123002F07FFB54214DF2133002F07AFB6A
:103A500001214DF2143002F075FB82214DF2153038
:103A600002F070FB01214DF2163002F06BFBCA210F
:103A70004DF2173002F066FB02214DF2183002F0D1
:103A800061FB00214DF2193002F05CFB02214DF286
:103A90001A3002F057FB01214DF21B3002F052FBAD
:103AA00002214DF21C3002F04DFB34214DF21D304D
:103AB00002F048FB02214DF21E3002F043FB672169
:103AC0004DF21F3002F03EFB02214DF2203002F099
:103AD00039FB84214DF2213002F034FB02214DF2FA
:103AE000223002F02FFBA4214DF2233002F02AFBFA
:103AF00002214DF2243002F025FBB7214DF2253092
:103B000002F020FB02214DF2263002F01BFBCF21F8
:103B10004DF2273002F016FB02214DF2283002F060
:103B200011FBDE214DF2293002F00CFB02214DF297
:103B30002A3002F007FBF2214DF22B3002F002FB9B
:103B400002214DF22C3002F0FDFAFE214DF22D3013
:103B500002F0F8FA03214DF22E3002F0F3FA1021B0
:103B60004DF22F3002F0EEFA03214DF2303002F028
:103B7000E9FA33214DF2313002F0E4FA03214DF23B
:103B8000323002F0DFFA6D214DF2333002F0DAFA12
:103B900000214FF4544002F0D5FA33214DF2014098
:103BA00002F0D0FA00214DF2024002F0CBFA3421AB
:103BB0004DF2034002F0C6FA00214DF2044002F03B
:103BC000C1FA3A214DF2054002F0BCFA00214DF253
:103BD000064002F0B7FA4A214DF2074002F0B2FA6D
:103BE00000214DF2084002F0ADFA5C214DF209408F
:103BF00002F0A8FA00214DF20A4002F0A3FA812156
:103C00004DF20B4002F09EFA00214DF20C4002F002
:103C100099FAA6214DF20D4002F094FA00214DF2DE
:103C20000E4002F08FFAE5214DF20F4002F08AFAC1
:103C300001214DF2104002F085FA13214DF211409E
:103C400002F080FA01214DF2124002F07BFA542179
:103C50004DF2134002F076FA01214DF2144002F0C9
:103C600071FA82214DF2154002F06CFA01214DF2F9
:103C7000164002F067FACA214DF2174002F062FACC
:103C800002214DF2184002F05DFA00214DF2194078
:103C900002F058FA02214DF21A4002F053FA0121C3
:103CA0004DF21B4000E006E302F04CFA02214DF217
:103CB0001C4002F047FA34214DF21D4002F042FA56
:103CC00002214DF21E4002F03DFA67214DF21F40E5
:103CD00002F038FA02214DF2204002F033FA84213A
:103CE0004DF2214002F02EFA02214DF2224002F064
:103CF00029FAA4214DF2234002F024FA02214DF2C8
:103D0000244002F01FFAB7214DF2254002F01AFAC2
:103D100002214DF2264002F015FACF214DF2274044
:103D200002F010FA02214DF2284002F00BFADE21D7
:103D30004DF2294002F006FA02214DF22A4002F02B
:103D400001FAF2214DF22B4002F0FCF902214DF272
:103D50002C4002F0F7F9FE214DF22D4002F0F2F96D
:103D600003214DF22E4002F0EDF910214DF22F40CB
:103D700002F0E8F903214DF2304002F0E3F933217B
:103D80004DF2314002F0DEF903214DF2324002F0F3
:103D9000D9F96D214DF2334002F0D4F900214FF4EE
:103DA000554002F0CFF933214DF2015002F0CAF92B
:103DB00000214DF2025002F0C5F934214DF20350BA
:103DC00002F0C0F900214DF2045002F0BBF93A2193
:103DD0004DF2055002F0B6F900214DF2065002F006
:103DE000B1F94A214DF2075002F0ACF900214DF231
:103DF000085002F0A7F95C214DF2095002F0A2F937
:103E000000214DF20A5002F09DF981214DF20B5034
:103E100002F098F900214DF20C5002F093F9A6211E
:103E20004DF20D5002F08EF900214DF20E5002F0CD
:103E300089F9E5214DF20F5002F084F901214DF28C
:103E4000105002F07FF913214DF2115002F07AF96F
:103E500001214DF2125002F075F954214DF2135028
:103E600002F070F901214DF2145002F06BF9822139
:103E70004DF2155002F066F901214DF2165002F094
:103E800061F9CA214DF2175002F05CF902214DF29E
:103E9000185002F057F900214DF2195002F052F972
:103EA00002214DF21A5002F04DF901214DF21B5042
:103EB00002F048F902214DF21C5002F043F934217E
:103EC0004DF21D5002F03EF902214DF21E5002F05B
:103ED00039F967214DF21F5002F034F902214DF2F9
:103EE000205002F02FF984214DF2215002F02AF9DE
:103EF00002214DF2225002F025F9A4214DF2235067
:103F000002F020F902214DF2245002F01BF9B721F2
:103F10004DF2255002F016F902214DF2265002F022
:103F200011F9CF214DF2275002F00CF902214DF288
:103F3000285002F007F9DE214DF2295002F002F973
:103F400002214DF22A5002F0FDF8F2214DF22B50E1
:103F500002F0F8F802214DF22C5002F0F3F8FE21A5
:103F60004DF22D5002F0EEF803214DF22E5002F0EA
:103F7000E9F810214DF22F5002F0E4F803214DF240
:103F8000305002F0DFF833214DF2315002F0DAF810
:103F900003214DF2325002F0D5F86D214DF233502D
:103FA00002F0D0F800214FF4564002F0CBF8332154
:103FB0004DF2016002F0C6F800214DF2026002F0FD
:103FC000C1F834214DF2036002F0BCF800214DF23B
:103FD000046002F0B7F83A214DF2056002F0B2F841
:103FE00000214DF2066002F0ADF84A214DF2076063
:103FF00002F0A8F800214DF2086002F0A3F85C215D
:104000004DF2096002F09EF800214DF20A6002F0C4
:1040100099F881214DF20B6002F094F800214DF2E5
:104020000C6002F08FF8A6214DF20D6002F08AF8C4
:1040300000214DF20E6002F085F8E5214DF20F608F
:1040400002F080F801214DF2106002F07BF813219C
:104050004DF2116002F076F801214DF2126002F08B
:1040600071F854214DF2136002F06CF801214DF209
:10407000146002F067F882214DF2156002F062F8D8
:1040800001214DF2166002F05DF8CA214DF2176071
:1040900002F058F802214DF2186002F053F80021A6
:1040A0004DF2196002F04EF802214DF21A6002F052
:1040B00049F801214DF21B6002F044F802214DF253
:1040C0001C6002F03FF834214DF21D6002F03AF816
:1040D00002214DF21E6002F035F867214DF21F609B
:1040E00002F030F802214DF2206002F02BF884211A
:1040F0004DF2216002F026F802214DF2226002F01A
:1041000021F8A4214DF2236002F01CF802214DF2A7
:10411000246002F017F8B7214DF2256002F012F882
:1041200002214DF2266002F00DF8CF214DF22760FA
:1041300002F008F802214DF2286002F003F8DE21B7
:104140004DF2296001F0FEFF02214DF22A6001F0DC
:10415000F9FFF2214DF22B6001F0F4FF02214DF244
:104160002C6001F0EFFFFE214DF22D6001F0EAFF1F
:1041700003214DF22E6001F0E5FF10214DF22F607A
:1041800001F0E0FF03214DF2306001F0DBFF33214D
:104190004DF2316001F0D6FF03214DF2326001F0A3
:1041A000D1FF6D214DF2336001F0CCFF55214FF46A
:1041B000704001F0C7FFAA214FF2010001F0C2FFD9
:1041C00052214FF2020001F0BDFF08214FF203001F
:1041D00001F0B8FF00214FF2040001F0B3FFCC2141
:1041E0004FF4314001F0AEFF00214BF2011001F01D
:1041F000A9FF05214FF4364001F0A4FF70214FF4D0
:10420000374001F09FFF70214BF2017001F09AFFDF
:1042100001214FF4384001F095FF03214BF60100D6
:1042200001F090FF03214BF6020001F08BFF032108
:104230004BF6030001F086FF02214FF43C4001F0F1
:1042400081FF00214BF6014001F07CFF00214BF67D
:10425000024001F077FFD0214FF4494001F072FF96
:1042600002214CF6011001F06DFF50214CF60210B6
:1042700001F068FF50214CF6031001F063FF50215C
:104280004CF6041001F05EFF00214FF4545001F091
:1042900059FF55214FF4685001F054FF4FF48850F6
:1042A00001F040FF782002F011FC4FF4245001F09F
:1042B00039FF01F05EB9FE48808849F22531884215
:1042C0007ED147F6F001E52001F03CFF4FF480710C
:1042D000012001F037FF4FF4E061022001F032FFCE
:1042E00041F23001032001F02DFF0021042001F0F4
:1042F00029FF40F20221082001F024FF00210920BB
:1043000001F020FF00210A2001F01CFF00210C20F9
:1043100001F018FF00210D2001F014FF00210F20F3
:1043200001F010FF0021102001F00CFF07211120E7
:1043300001F008FF0021122001F004FF00211320EA
:1043400001F000FF0021072001F0FCFE41F2906126
:10435000102001F0F7FE40F22721112001F0F2FEBB
:104360009D21122001F0EEFE4FF4C851132001F000
:10437000E9FE2521292001F0E5FE0D212B2001F089
:10438000E1FE0721302001F0DDFE40F20331312053
:1043900001F0D8FE0321322001F0D4FE40F20621C4
:1043A000352001F0CFFE0821362001F0CBFE40F28F
:1043B0000641372001F0C6FE4FF44171382000E07D
:1043C00057E001F0BFFE0721392001F0BBFE40F2AB
:1043D00002613C2001F0B6FE08213D2001F0B2FE52
:1043E0000021502001F0AEFEEF21512001F0AAFE85
:1043F0000021522001F0A6FE40F23F11532001F0AF
:10440000A1FE4FF42741602001F09CFE01216120B4
:1044100001F098FE00216A2001F094FE0021802026
:1044200001F090FE0021812001F08CFE002182200D
:1044300001F088FE0021832001F084FE0021842009
:1044400001F080FE0021852001F07CFE10219020EB
:1044500001F078FE4FF4C061922001F073FE40F24B
:104460003311072001F06EFE2221002001F06AFEC8
:104470001FE78F48808849F2283188427ED141F277
:104480008F01EC2001F05EFE41F23421EF2001F0BB
:1044900059FE4FF48071012001F054FE4FF4E061A9
:1044A000022001F04FFE41F23001032001F04AFEEC
:1044B0000021042001F046FE40F20221082001F014
:1044C00041FE0021092001F03DFE00210A2001F0FB
:1044D00039FE01210C2001F035FE00210D2001F0F4
:1044E00031FE00210F2001F02DFE0021102001F0EF
:1044F00029FE0721112001F025FE0021122001F0E4
:1045000021FE0021132001F01DFE0121072001F0F2
:1045100019FE322002F0BCFA41F29041102001F065
:1045200011FE40F22721112001F00CFE322002F092
:10453000AFFA8A21122001F005FE322002F0A8FA1B
:104540004FF4D051132001F0FDFD0621292001F088
:10455000F9FD0D212B2001F0F5FD322002F098FA33
:104560000021202001F0EEFD0021212001F0EAFDD4
:10457000322002F08DFA0021302000E074E001F0DA
:10458000E1FD40F20461312001F0DCFD40F2053133
:10459000322001F0D7FD0021352001F0D3FD40F697
:1045A0000941362001F0CEFD4FF40171372001F0B2
:1045B000C9FD40F20131382001F0C4FD40F207711D
:1045C000392001F0BFFD00213C2001F0BBFD40F689
:1045D0000A213D2001F0B6FD322002F059FA0021F7
:1045E000502001F0AFFDEF21512001F0ABFD002183
:1045F000522001F0A7FD40F23F11532001F0A2FD2F
:104600004FF42741602001F09DFD0121612001F060
:1046100099FD00216A2001F095FD0021802001F024
:1046200091FD0021812001F08DFD0021822001F00B
:1046300089FD0021832001F085FD0021842001F007
:1046400081FD0021852001F07DFD1021902001F0E9
:1046500079FD4FF4C061922001F074FD40F23311F6
:10466000072001F06FFD24E61148808849F22031CF
:1046700088427DD10021084601F064FD4FF480712D
:10468000012001F05FFD4FF4E061022001F05AFDCE
:1046900041F23001032001F055FD0021042001F01A
:1046A00051FD40F20221082001F04CFD002101E003
:1046B00074020020092001F045FD00210A2001F0CC
:1046C00041FD01210C2001F03DFD00210D2001F0F4
:1046D00039FD00210F2001F035FD322002F0D8F91C
:1046E00040F20111072001F02DFD322002F0D0F937
:1046F0004FF48651102001F025FD0721112001F013
:1047000021FD4FF48871122001F01CFD4FF430613F
:10471000132001F017FD0021292001F013FD44F2C0
:1047200010012B2001F00EFD0021502001F00AFDA8
:10473000EF21512001F006FD0021522001F002FD81
:1047400040F23F11532001F0FDFC4FF41C5160205A
:1047500001F0F8FC0121612001F0F4FC00216A2045
:1047600001F0F0FC0021802001F0ECFC002100E0D1
:1047700031E0812001F0E6FC0021822001F0E2FC22
:104780000021832001F0DEFC0021842001F0DAFC0E
:104790000021852001F0D6FC1021902001F0D2FCF0
:1047A0000021922001F0CEFC0121932001F0CAFCEF
:1047B0004FF48871952001F0C5FC0021972001F08D
:1047C000C1FC0021982001F0BDFC40F273110720CC
:1047D00001F0B8FC6DE5FE48808849F2313188422D
:1047E0007DD141F21401E72001F0ACFC4FF480715F
:1047F000012001F0A7FC4FF40071022001F0A2FC9F
:1048000041F23801032001F09DFC40F20221082012
:1048100001F098FC0021092001F094FC00210A20FD
:1048200001F090FC00210C2001F08CFC00210D20F7
:1048300001F088FC00210F2001F084FC00211020F1
:1048400001F080FC0721112001F07CFC00211220E6
:1048500001F078FC0021132001F074FCC82002F064
:1048600017F941F29061102001F06CFC40F2272111
:10487000112001F067FC322002F00AF90C2112200D
:1048800001F060FC322002F003F94FF400611320C4
:1048900001F058FC1121292001F054FC0B212B20A0
:1048A00001F050FC322002F0F3F80021202001F04A
:1048B00049FC40F23F11212001F044FC002130204E
:1048C00001F040FC4FF48371312001F03BFC0021EA
:1048D000322001F037FC4FF40171352000E064E034
:1048E00001F030FC41F20A61362001F02BFC40F26D
:1048F0000771372001F026FC4FF48371382001F056
:1049000021FC40F20771392001F01CFC40F2024109
:104910003C2001F017FC40F60F413D2001F012FC55
:104920000021502001F00EFCEF21512001F00AFC83
:104930000021522001F006FC40F23F11532001F00B
:1049400001FC4FF41C51602001F0FCFB01216120AF
:1049500001F0F8FB00216A2001F0F4FB0021802027
:1049600001F0F0FB0021812001F0ECFB002182200E
:1049700001F0E8FB0021832001F0E4FB002184200A
:1049800001F0E0FB0021852001F0DCFB10219020EC
:1049900001F0D8FB4FF4C061922001F0D3FB40F24C
:1049A0003311072001F0CEFB83E48948808845F26B
:1049B000084188427ED14FF48071012001F0C2FB92
:1049C0004FF4E061022001F0BDFB41F23001032011
:1049D00001F0B8FB0021042001F0B4FB40F20721F4
:1049E000082001F0AFFB0021092001F0ABFB002102
:1049F0000A2001F0A7FB00210C2001F0A3FB0021FD
:104A00000D2001F09FFB00210F2001F09BFB1420E3
:104A100002F03EF841F2B061102001F093FB012159
:104A2000112001F08FFB0121172001F08BFB4FF4C7
:104A30009C71122001F086FB4FF40061132001F0FD
:104A400081FB0921292001F07DFB09212A2001F0A9
:104A500079FB0021A42001F075FB0021502001F01A
:104A600071FBEF21512001F06DFB0021522001F07C
:104A700069FB40F23F11532001F064FB4FF41C51DD
:104A8000602001F05FFB0121612001F05BFB002150
:104A90006A2001F057FB0021802001F053FB002128
:104AA000812001F04FFB0021822001F04BFB00210F
:104AB000832000E023E001F045FB0021842001F089
:104AC00041FB0021852001F03DFB1321902001F0E6
:104AD00039FB0021922001F035FB0321932001F0E6
:104AE00031FB4FF48871952001F02CFB40F27311DB
:104AF000072001F027FB322001F0CAFFB8E4344858
:104B0000808841F2055188427ED10021072001F0C2
:104B100019FB322001F0BCFF4FF48E71122001F01E
:104B200011FB0121A42001F00DFB0F21082001F051
:104B300009FB08210A2001F005FB08210D2001F0E6
:104B400001FB40F20771302001F0FCFA072131200F
:104B500001F0F8FA40F20361322001F0F3FA4FF469
:104B6000E061332001F0EEFA40F20221342001F03E
:104B7000E9FA0221352001F0E5FA41F60F713620FD
:104B800001F0E0FA40F20771372001F0DBFA002172
:104B9000382001F0D7FA0021392001F0D3FA40F291
:104BA00007713A2001F0CEFA00213B2001F0CAFA49
:104BB00007213C2001F0C6FA00213D2001F0C2FA95
:104BC000322001F065FF0121072001F0BBFA01E06E
:104BD000740200200121172001F0B4FA322001F004
:104BE00057FF4FF4BD51102001F0ACFA40F21721ED
:104BF000112001F0A7FA4FF48F71122001F0A2FAF0
:104C00004FF47061132000E097E001F09BFA00215F
:104C10002A2001F097FA0A21292001F093FA4FF493
:104C20009F71122001F08EFA0021502001F08AFAC3
:104C3000EF21512001F086FA0021522001F082FA82
:104C400040F23F11532001F07DFA4FF41C516020D7
:104C500001F078FA0121612001F074FA00216A2044
:104C600001F070FA0021802001F06CFA002181200F
:104C700001F068FA0021822001F064FA002183200B
:104C800001F060FA0021842001F05CFA0021852007
:104C900001F058FA1321902001F054FA4FF44071BA
:104CA000922001F04FFA0521932001F04BFA0021E8
:104CB000952001F047FA0021972001F043FA0021E6
:104CC000982001F03FFA4FF48071012001F03AFA88
:104CD0004FF4E061022001F035FA41F2380103207F
:104CE00001F030FA0021042001F02CFA00210C2000
:104CF00001F028FA00210F2001F024FA00212020E1
:104D000001F020FA0021212001F01CFA21210720C6
:104D100001F018FA142001F0BBFE6121072001F018
:104D200011FA142001F0B4FE40F27311072001F0D3
:104D300009FA142001F0ACFE95E4FE4880884BF29D
:104D4000055188427ED10021084601F0FBF900217F
:104D5000084601F0F7F90021084601F0F3F90021B7
:104D6000084601F0EFF90121A42001F0EBF914202D
:104D700001F08EFE4FF41C51602001F0E3F940F287
:104D80000221082001F0DEF94FF40571302001F016
:104D9000D9F943F21571312001F0D4F940F20461E0
:104DA000322001F0CFF940F61661332001F0CAF944
:104DB00042F21121342001F0C5F94FF4A8513520F9
:104DC00001F0C0F948F20751362001F0BBF941F279
:104DD0000741372001F0B6F941F20341382001F0D4
:104DE000B1F92021392001F0ADF91A21902001F00C
:104DF000A9F90021102001F0A5F90721112001F0E7
:104E0000A1F90021122001F09DF90021132001F0E9
:104E100099F9142001F03CFE4FF4E661102001F0F6
:104E200091F940F23711112001F08CF9142001F0B2
:104E30002FFE4FF4DC71122001F084F9142001F0F0
:104E400027FE00E083E04FF47061132001F07AF94F
:104E500080212A2001F076F94821292001F072F9F9
:104E6000142001F015FE4FF48071012001F06AF961
:104E70004FF4E061022001F065F941F238010320AE
:104E800001F060F940F20221082001F05BF90021F5
:104E90000A2001F057F900210C2001F053F90021FC
:104EA0000D2001F04FF930210E2001F04BF90021C7
:104EB000502001F047F9EF21512001F043F9002182
:104EC000522001F03FF940F23F11532001F03AF92E
:104ED0004FF41C51602001F035F90121612001F0EF
:104EE00031F900216A2001F02DF91121902001F003
:104EF00029F94FF4C061922001F024F940F20241F7
:104F0000932001F01FF90221942001F01BF91420D5
:104F100001F0BEFD0121072001F014F9142001F079
:104F2000B7FD6121072001F00DF940F27311072050
:104F300001F008F90021202001F004F900212120CE
:104F400001F000F92221002001F0FCF811E379487A
:104F500080884CF2055188427ED10021084601F03C
:104F6000F1F80021084601F0EDF8142001F090FD61
:104F70000021084601F0E6F80021084601F0E2F8B9
:104F80000021084601F0DEF80021084601F0DAF8B9
:104F90000121A42001F0D6F8142001F079FD4FF48E
:104FA0001C51602001F0CEF840F60601082001F007
:104FB000C9F840F20371302001F0C4F8012131201A
:104FC00001F0C0F80421322001F0BCF84FF48171E7
:104FD000332001F0B7F84FF44071342001F0B2F8FB
:104FE00040F20311352001F0ADF81F21362001F009
:104FF000A9F840F20371372001F0A4F8012138200C
:1050000001F0A0F80421392001F09CF8152190202E
:1050100001F098F84FF48261102001F093F840F20B
:105020004721112001F08EF84FF4DE71122001F0BB
:1050300089F84FF46061132001F084F8782001F0C2
:1050400027FD4FF48071012001F07CF84FF40071CE
:10505000022001F077F800E050E041F23001032037
:1050600001F070F808210A2001F06CF800210C20F2
:1050700001F068F820210E2001F064F800210F20D3
:1050800001F060F80021202001F05CF800212120CF
:1050900001F058F83D212A2001F054F8142001F0C5
:1050A000F7FC2D21292001F04DF80021502001F0BE
:1050B00049F84DF2EF01512001F044F8002152204F
:1050C00001F040F840F23F11532001F03BF800217D
:1050D000612001F037F800216A2001F033F84FF425
:1050E0004071922001F02EF80521932001F02AF85A
:1050F0004FF48071072001F025F83AE20D488088CE
:1051000044F2315188427CD10121002001F01AF88B
:105110000A2001F0BDFC41F22861102001F012F8D4
:105120000E21122001F00EF840F63921132001F073
:1051300009F801E0740200200A2001F0A9FC4021D6
:10514000112000F0FFFF5021152000F0FBFF0A2086
:1051500001F09EFC1E21122000F0F4FF0A2001F055
:1051600097FC4FF4B151102000F0ECFF42F63921CA
:10517000132000F0E7FF0A2001F08AFC4FF4807151
:10518000012000F0DFFF4FF44071022000F0DAFF51
:1051900041F23801032000F0D5FF40F2022108203F
:1051A00000F0D0FF08210A2000F0CCFF00213020C1
:1051B00000F0C8FF40F20241312000F0C3FF4FF47D
:1051C0008371322000F0BEFF40F20351332000F023
:1051D000B9FF4FF48271342000F0B4FF40F2013186
:1051E000352000F0AFFF40F20771362000F0AAFF33
:1051F00040F20531372000F0A5FF4FF4027138204E
:1052000000E040E000F09EFF40F60B71392000F016
:1052100099FF0221412000F095FF4FF41C516020BE
:1052200000F090FF0121612000F08CFF4FF4047129
:10523000902000F087FF4FF48571922000F082FFEC
:105240000421932000F07EFF4FF48071A02000F035
:1052500079FF0121072000F075FF2121072000F0D0
:1052600071FF2321072000F06DFF3321072000F09C
:1052700069FF40F23311072000F064FF0021A020F5
:1052800000F060FF75E1C048808844F235518842E3
:105290007ED13021152000F055FF10219A2000F01A
:1052A00051FF2021112000F04DFF43F22841102032
:1052B00000F048FF0221122000F044FF41F23801C3
:1052C000132000F03FFF282001F0E2FB12210846E6
:1052D00000F038FF282001F0DBFB43F220411020D2
:1052E00000F030FF43F23801132000F02BFF46207E
:1052F00001F0CEFB0021302000F024FF40F20241FB
:10530000312000F01FFF40F20731322000F01AFF79
:105310004FF44171332000F015FF0421342000F0D8
:1053200011FF40F20141352000F00CFF40F20771FF
:10533000362000F007FF40F20531372000F002FF71
:105340004FF4C261382000F0FDFE4FF4C2613920F5
:1053500000F0F8FE4FF48071012000F0F3FE4FF4EE
:105360004071022000F0EEFE41F23001032000F017
:10537000E9FE40F60801082000F0E4FE08210A20BA
:1053800000F0E0FE4FF41C51602000F0DBFE00E076
:1053900031E00121612000F0D5FE4FF49F71902093
:1053A00000F0D0FE4FF48071922000F0CBFE4FF45D
:1053B0008071932000F0C6FE4FF44051A02000F011
:1053C000C1FE1021A32000F0BDFE0121072000F046
:1053D000B9FE2121072000F0B5FE2321072000F0AF
:1053E000B1FE3321072000F0ADFE40F2331107205B
:1053F00000F0A8FEBDE06448808841F66311884251
:10540000F8D1E22000F08EFE1D2000F085FE022083
:1054100000F082FE042000F07FFE642001F056FBC5
:10542000E02000F07FFE012000F076FE0A2001F06F
:105430002FFBE02000F076FE032000F06DFE0C2034
:1054400001F026FB012000F06DFE0A2001F020FB98
:10545000E62000F067FE2F2000F05EFEFF2000F047
:105460005BFEFF2000F058FEB02000F05BFE202025
:1054700000F052FE002000F04FFE032000F04CFE32
:1054800040F21F3000F048FE012000F045FE40F2DF
:10549000DF1000F041FE002000F03EFEB42000F0DE
:1054A00041FE042000F038FE40F21F4000F034FEC0
:1054B000002000F031FE2E2000F02EFE002000F033
:1054C0002BFE002000F028FE002000F025FE00202A
:1054D00000F022FEB62000F025FE022000F01CFEA7
:1054E0004FF4037000F018FE002000F015FE1720A6
:1054F00000F012FE152000F00FFE002000F00CFE60
:10550000002000F009FEF02000F00CFE032000F067
:1055100003FE292000F006FED02000F003FE00204C
:1055200000F0FAFDBE2000F0FDFD052000F0F4FDC6
:10553000FE2000F0F1FD012000F0EEFD002000F063
:10554000EBFD002000F0E8FD002000F0E5FDB820B4
:1055500000F0E8FD032000F0DFFD012000F0DCFD9D
:10556000BA2000F0DFFD012000F0D6FD642000F03D
:10557000E7F80020FCF754F90120044908604FF6D1
:10558000FF70FCF717F910BD7402002080812142E2
:1055900010B50246012000E050430B00A1F10104C8
:1055A000E1B2F9D110BD000008B5034800880090B1
:1055B000BDF8000008BD00000008006C2DE9F041B6
:1055C00005460E4600240027A04656480088A842FB
:1055D00003DD54484088B04202DC0020BDE8F08181
:1055E0003146284600F04CFA4E48808849F2413155
:1055F000884211D04B48808846F6040188420BD07F
:105600004848808845F21031884205D04548808856
:1056100041F66311884203D12E2000F083FD0DE096
:105620004048808845F21051884204D14FF43850E8
:1056300000F078FD02E0222000F074FD39488088F7
:1056400049F22031884202D1022001F0ADFDFFF77E
:10565000ABFF04463348808841F66311884201D18C
:105660002046BBE7022001F09FFDFFF79DFF0446A7
:105670002C48808849F2413188420BD029488088E3
:1056800045F21031884205D02648808845F21051F5
:1056900088420AD1022001F087FDFFF785FF80468E
:1056A000E7B24FF6FF7000EA07271E48808849F2EC
:1056B0002531884216D01B48808844F235518842F3
:1056C00010D018488088091F88420BD01548808860
:1056D0004BF20551884205D0124880884CF20551A2
:1056E000884201D1204679E70E48808849F241314D
:1056F00088420BD00B48808845F21031884205D093
:105700000848808845F21051884207D1E012C00253
:10571000B91240EA411040EAE8205FE72046FCF772
:105720003BF85BE77402002010B50446204600F009
:10573000F9FC052001F0CAF9FFF736FF10BD0000A3
:105740002DE9F0470446BE2000F0ECFC052000F0F7
:10575000E3FC204603F0EBF807464FF066320C4BB3
:1057600003F0F8F8054603F0B5F81FFA80F948464B
:1057700000F0D2FC012000F0CFFCFF2000F0CCFCB8
:10578000002000F0C9FC002000F0C6FCBDE8F08756
:105790006666044070B5044600230026B748807949
:1057A00001280BD1B548808846F60401884205D00F
:1057B000B248808841F66311884208D1AF488079A9
:1057C000F0B9AE48808841F66311884218D1082CA0
:1057D00015D2DFE804F00406080A0C0E10120624A5
:1057E0000DE007240BE0042409E0052407E0012470
:1057F00005E0002403E0032401E0022400BF00BF11
:105800009E48808849F24131884217D09B48808861
:1058100046F60401884211D09848808845F210313C
:1058200088420BD09548808845F21051884205D0B7
:105830009248808841F6631188427DD1082C1CD2A1
:10584000DFE804F00406090C0F12151800BF14E07D
:1058500043F0800311E043F040030EE043F0C00347
:105860000BE043F0200308E043F0600305E043F061
:10587000A00302E043F0E00300BF00BF7F48808840
:1058800045F21051884202D14FF4585600E03626B6
:105890007A48808845F2103188420DD07748808858
:1058A00045F21051884207D07448808841F6631150
:1058B000884201D043F008037048808846F604010E
:1058C000884201D143F002031946304600F03AFC09
:1058D0006A48808841F6631188421DD003F0200099
:1058E00068B16648008865494988884214DA634887
:1058F0000588408861490880084645800CE05F487B
:1059000000885E494988884206DD5C4805884088F1
:105910005A490880084645805848808845F2105109
:10592000884254D15549488900F0FCFB002000F022
:10593000F3FB5249498900E078E0491C88B200F045
:10594000F1FB002000F0E8FB4C494989891C88B232
:1059500000F0E8FB49490988491EC1F30F2000F017
:10596000DBFB46494989C91C88B200F0DBFB43498F
:105970000978491EC8B200F0CFFB4049888900F081
:10598000D1FB002000F0C8FB3C498989491C88B242
:1059900000F0C8FB002000F0BFFB38498989891C52
:1059A00088B200F0BFFB35494988491EC1F30F207A
:1059B00000F0B2FB31498989C91C88B200F0B2FB02
:1059C0002E498978491EC8B200F0A6FB55E02B4944
:1059D000488900F0A7FB002000F09EFB002000F0AB
:1059E0009BFB26490988491EC1F30F2000F094FB58
:1059F00022490978491EC8B200F08EFB1F498889E8
:105A000000F090FB002000F087FB002000F084FBFA
:105A10001A494988491EC1F30F2000F07DFB174940
:105A20008978491EC8B200F077FB26E0082C1CD20A
:105A3000DFE804F004070A0D0F12151843F03003D5
:105A400013E043F0100310E043F020030DE000BF2B
:105A50000BE043F0380308E043F0280305E043F08F
:105A6000180302E043F0080300BF00BF032643F41D
:105A700080531946304600F065FB70BD740200206B
:105A800010B503460C466748808849F24131884288
:105A900005D06448808845F21031884214D16149AC
:105AA000488900F03FFB181200F036FBD8B200F036
:105AB00033FB5C49888900F035FB201200F02CFB99
:105AC000E0B200F029FBABE05648808846F60401BE
:105AD00088421DD153488079012804D1514800885B
